{
  "_format": "hh-sol-artifact-1",
  "contractName": "DegreeManager",
  "sourceName": "contracts/DegreeManager.sol",
  "abi": [
    {
      "inputs": [
        {
          "internalType": "address",
          "name": "_CMaddr",
          "type": "address"
        },
        {
          "internalType": "address",
          "name": "_GMaddr",
          "type": "address"
        }
      ],
      "stateMutability": "nonpayable",
      "type": "constructor"
    },
    {
      "anonymous": false,
      "inputs": [
        {
          "indexed": true,
          "internalType": "address",
          "name": "owner",
          "type": "address"
        },
        {
          "indexed": true,
          "internalType": "address",
          "name": "approved",
          "type": "address"
        },
        {
          "indexed": true,
          "internalType": "uint256",
          "name": "tokenId",
          "type": "uint256"
        }
      ],
      "name": "Approval",
      "type": "event"
    },
    {
      "anonymous": false,
      "inputs": [
        {
          "indexed": true,
          "internalType": "address",
          "name": "owner",
          "type": "address"
        },
        {
          "indexed": true,
          "internalType": "address",
          "name": "operator",
          "type": "address"
        },
        {
          "indexed": false,
          "internalType": "bool",
          "name": "approved",
          "type": "bool"
        }
      ],
      "name": "ApprovalForAll",
      "type": "event"
    },
    {
      "anonymous": false,
      "inputs": [
        {
          "indexed": true,
          "internalType": "address",
          "name": "from",
          "type": "address"
        },
        {
          "indexed": true,
          "internalType": "address",
          "name": "to",
          "type": "address"
        },
        {
          "indexed": true,
          "internalType": "uint256",
          "name": "tokenId",
          "type": "uint256"
        }
      ],
      "name": "Transfer",
      "type": "event"
    },
    {
      "inputs": [
        {
          "internalType": "uint64",
          "name": "_PS",
          "type": "uint64"
        },
        {
          "internalType": "uint8",
          "name": "_semID",
          "type": "uint8"
        }
      ],
      "name": "_getCourses",
      "outputs": [
        {
          "internalType": "uint8",
          "name": "studentCoursesPerSem",
          "type": "uint8"
        }
      ],
      "stateMutability": "view",
      "type": "function"
    },
    {
      "inputs": [
        {
          "internalType": "uint64",
          "name": "_PS",
          "type": "uint64"
        }
      ],
      "name": "_getMaxCourseTypes",
      "outputs": [
        {
          "internalType": "uint8",
          "name": "MaxCourseTypes",
          "type": "uint8"
        }
      ],
      "stateMutability": "view",
      "type": "function"
    },
    {
      "inputs": [
        {
          "internalType": "uint64",
          "name": "_PS",
          "type": "uint64"
        },
        {
          "internalType": "uint8",
          "name": "_semID",
          "type": "uint8"
        }
      ],
      "name": "_getRequirementsFormSem",
      "outputs": [
        {
          "internalType": "uint8[]",
          "name": "_typeOfCoursesNum",
          "type": "uint8[]"
        }
      ],
      "stateMutability": "view",
      "type": "function"
    },
    {
      "inputs": [
        {
          "internalType": "uint64",
          "name": "_PS",
          "type": "uint64"
        }
      ],
      "name": "_getSems",
      "outputs": [
        {
          "internalType": "uint8",
          "name": "studentMaxSemesters",
          "type": "uint8"
        }
      ],
      "stateMutability": "view",
      "type": "function"
    },
    {
      "inputs": [
        {
          "internalType": "uint256",
          "name": "_am",
          "type": "uint256"
        }
      ],
      "name": "_getStudentPS",
      "outputs": [
        {
          "internalType": "uint64",
          "name": "studentPS",
          "type": "uint64"
        }
      ],
      "stateMutability": "view",
      "type": "function"
    },
    {
      "inputs": [
        {
          "internalType": "uint256",
          "name": "_am",
          "type": "uint256"
        },
        {
          "internalType": "uint64",
          "name": "_PS",
          "type": "uint64"
        },
        {
          "internalType": "uint8",
          "name": "_semID",
          "type": "uint8"
        },
        {
          "internalType": "uint8[]",
          "name": "_CoursesTypeNum",
          "type": "uint8[]"
        },
        {
          "internalType": "uint8",
          "name": "_maxCourseTypes",
          "type": "uint8"
        }
      ],
      "name": "_hasPassedAllCourses",
      "outputs": [
        {
          "internalType": "bool",
          "name": "result",
          "type": "bool"
        }
      ],
      "stateMutability": "view",
      "type": "function"
    },
    {
      "inputs": [
        {
          "internalType": "address",
          "name": "to",
          "type": "address"
        },
        {
          "internalType": "uint256",
          "name": "tokenId",
          "type": "uint256"
        }
      ],
      "name": "approve",
      "outputs": [],
      "stateMutability": "nonpayable",
      "type": "function"
    },
    {
      "inputs": [
        {
          "internalType": "address",
          "name": "owner",
          "type": "address"
        }
      ],
      "name": "balanceOf",
      "outputs": [
        {
          "internalType": "uint256",
          "name": "",
          "type": "uint256"
        }
      ],
      "stateMutability": "view",
      "type": "function"
    },
    {
      "inputs": [
        {
          "internalType": "uint256",
          "name": "_am",
          "type": "uint256"
        }
      ],
      "name": "checkIfStudentCanGraduate",
      "outputs": [
        {
          "internalType": "bool",
          "name": "result",
          "type": "bool"
        }
      ],
      "stateMutability": "nonpayable",
      "type": "function"
    },
    {
      "inputs": [],
      "name": "coursesManagerAddress",
      "outputs": [
        {
          "internalType": "address",
          "name": "",
          "type": "address"
        }
      ],
      "stateMutability": "view",
      "type": "function"
    },
    {
      "inputs": [
        {
          "internalType": "uint256",
          "name": "tokenId",
          "type": "uint256"
        }
      ],
      "name": "getApproved",
      "outputs": [
        {
          "internalType": "address",
          "name": "",
          "type": "address"
        }
      ],
      "stateMutability": "view",
      "type": "function"
    },
    {
      "inputs": [],
      "name": "gradesManagerAddress",
      "outputs": [
        {
          "internalType": "address",
          "name": "",
          "type": "address"
        }
      ],
      "stateMutability": "view",
      "type": "function"
    },
    {
      "inputs": [
        {
          "internalType": "address",
          "name": "owner",
          "type": "address"
        },
        {
          "internalType": "address",
          "name": "operator",
          "type": "address"
        }
      ],
      "name": "isApprovedForAll",
      "outputs": [
        {
          "internalType": "bool",
          "name": "",
          "type": "bool"
        }
      ],
      "stateMutability": "view",
      "type": "function"
    },
    {
      "inputs": [
        {
          "internalType": "uint256",
          "name": "_am",
          "type": "uint256"
        }
      ],
      "name": "isEligibleToGraduate",
      "outputs": [
        {
          "internalType": "bool",
          "name": "",
          "type": "bool"
        }
      ],
      "stateMutability": "view",
      "type": "function"
    },
    {
      "inputs": [
        {
          "internalType": "uint256",
          "name": "_am",
          "type": "uint256"
        }
      ],
      "name": "mint",
      "outputs": [
        {
          "internalType": "address",
          "name": "",
          "type": "address"
        }
      ],
      "stateMutability": "nonpayable",
      "type": "function"
    },
    {
      "inputs": [],
      "name": "name",
      "outputs": [
        {
          "internalType": "string",
          "name": "",
          "type": "string"
        }
      ],
      "stateMutability": "view",
      "type": "function"
    },
    {
      "inputs": [
        {
          "internalType": "uint256",
          "name": "tokenId",
          "type": "uint256"
        }
      ],
      "name": "ownerOf",
      "outputs": [
        {
          "internalType": "address",
          "name": "",
          "type": "address"
        }
      ],
      "stateMutability": "view",
      "type": "function"
    },
    {
      "inputs": [
        {
          "internalType": "address",
          "name": "from",
          "type": "address"
        },
        {
          "internalType": "address",
          "name": "to",
          "type": "address"
        },
        {
          "internalType": "uint256",
          "name": "tokenId",
          "type": "uint256"
        }
      ],
      "name": "safeTransferFrom",
      "outputs": [],
      "stateMutability": "nonpayable",
      "type": "function"
    },
    {
      "inputs": [
        {
          "internalType": "address",
          "name": "from",
          "type": "address"
        },
        {
          "internalType": "address",
          "name": "to",
          "type": "address"
        },
        {
          "internalType": "uint256",
          "name": "tokenId",
          "type": "uint256"
        },
        {
          "internalType": "bytes",
          "name": "_data",
          "type": "bytes"
        }
      ],
      "name": "safeTransferFrom",
      "outputs": [],
      "stateMutability": "nonpayable",
      "type": "function"
    },
    {
      "inputs": [
        {
          "internalType": "address",
          "name": "operator",
          "type": "address"
        },
        {
          "internalType": "bool",
          "name": "approved",
          "type": "bool"
        }
      ],
      "name": "setApprovalForAll",
      "outputs": [],
      "stateMutability": "nonpayable",
      "type": "function"
    },
    {
      "inputs": [
        {
          "internalType": "address",
          "name": "_addr",
          "type": "address"
        }
      ],
      "name": "setCMaddress",
      "outputs": [],
      "stateMutability": "nonpayable",
      "type": "function"
    },
    {
      "inputs": [
        {
          "internalType": "address",
          "name": "_addr",
          "type": "address"
        }
      ],
      "name": "setGMaddress",
      "outputs": [],
      "stateMutability": "nonpayable",
      "type": "function"
    },
    {
      "inputs": [
        {
          "internalType": "bytes4",
          "name": "interfaceId",
          "type": "bytes4"
        }
      ],
      "name": "supportsInterface",
      "outputs": [
        {
          "internalType": "bool",
          "name": "",
          "type": "bool"
        }
      ],
      "stateMutability": "view",
      "type": "function"
    },
    {
      "inputs": [],
      "name": "symbol",
      "outputs": [
        {
          "internalType": "string",
          "name": "",
          "type": "string"
        }
      ],
      "stateMutability": "view",
      "type": "function"
    },
    {
      "inputs": [
        {
          "internalType": "uint256",
          "name": "tokenId",
          "type": "uint256"
        }
      ],
      "name": "tokenURI",
      "outputs": [
        {
          "internalType": "string",
          "name": "",
          "type": "string"
        }
      ],
      "stateMutability": "view",
      "type": "function"
    },
    {
      "inputs": [
        {
          "internalType": "address",
          "name": "from",
          "type": "address"
        },
        {
          "internalType": "address",
          "name": "to",
          "type": "address"
        },
        {
          "internalType": "uint256",
          "name": "tokenId",
          "type": "uint256"
        }
      ],
      "name": "transferFrom",
      "outputs": [],
      "stateMutability": "nonpayable",
      "type": "function"
    }
  ],
  "bytecode": "0x60806040523480156200001157600080fd5b5060405162003e0438038062003e04833981810160405281019062000037919062000303565b6040518060400160405280600b81526020017f446567726565546f6b656e0000000000000000000000000000000000000000008152506040518060400160405280600381526020017f44544e00000000000000000000000000000000000000000000000000000000008152508160039080519060200190620000bb929190620001e9565b508060049080519060200190620000d4929190620001e9565b505050620000e8826200010160201b60201c565b620000f9816200014560201b60201c565b5050620003af565b80600260006101000a81548173ffffffffffffffffffffffffffffffffffffffff021916908373ffffffffffffffffffffffffffffffffffffffff16021790555050565b806000806101000a81548173ffffffffffffffffffffffffffffffffffffffff021916908373ffffffffffffffffffffffffffffffffffffffff16021790555060008054906101000a900473ffffffffffffffffffffffffffffffffffffffff16600160006101000a81548173ffffffffffffffffffffffffffffffffffffffff021916908373ffffffffffffffffffffffffffffffffffffffff16021790555050565b828054620001f79062000379565b90600052602060002090601f0160209004810192826200021b576000855562000267565b82601f106200023657805160ff191683800117855562000267565b8280016001018555821562000267579182015b828111156200026657825182559160200191906001019062000249565b5b5090506200027691906200027a565b5090565b5b80821115620002955760008160009055506001016200027b565b5090565b600080fd5b600073ffffffffffffffffffffffffffffffffffffffff82169050919050565b6000620002cb826200029e565b9050919050565b620002dd81620002be565b8114620002e957600080fd5b50565b600081519050620002fd81620002d2565b92915050565b600080604083850312156200031d576200031c62000299565b5b60006200032d85828601620002ec565b92505060206200034085828601620002ec565b9150509250929050565b7f4e487b7100000000000000000000000000000000000000000000000000000000600052602260045260246000fd5b600060028204905060018216806200039257607f821691505b60208210811415620003a957620003a86200034a565b5b50919050565b613a4580620003bf6000396000f3fe608060405234801561001057600080fd5b506004361061018e5760003560e01c80637408442e116100de578063a6eab4e111610097578063c887014411610071578063c8870144146104f3578063cf1fb98914610523578063e985e9c514610553578063fe0dbdda146105835761018e565b8063a6eab4e114610477578063b88d4fde146104a7578063c87b56dd146104c35761018e565b80637408442e1461039157806395d89b41146103c157806397df5f77146103df5780639e520f6f146103fb578063a0712d681461042b578063a22cb4651461045b5761018e565b806323b872dd1161014b5780634d45df53116101255780634d45df53146102e35780635152b80b146103135780636352211e1461033157806370a08231146103615761018e565b806323b872dd1461027b5780632f99eba61461029757806342842e0e146102c75761018e565b806301ffc9a71461019357806306fdde03146101c3578063081812fc146101e1578063095ea7b3146102115780630ea66ec91461022d578063199fdfc81461024b575b600080fd5b6101ad60048036038101906101a891906121b4565b61059f565b6040516101ba91906121fc565b60405180910390f35b6101cb610681565b6040516101d891906122b0565b60405180910390f35b6101fb60048036038101906101f69190612308565b610713565b6040516102089190612376565b60405180910390f35b61022b600480360381019061022691906123bd565b610798565b005b6102356108b0565b6040516102429190612376565b60405180910390f35b6102656004803603810190610260919061243d565b6108d6565b6040516102729190612486565b60405180910390f35b610295600480360381019061029091906124a1565b610980565b005b6102b160048036038101906102ac9190612308565b6109e0565b6040516102be91906121fc565b60405180910390f35b6102e160048036038101906102dc91906124a1565b610a0a565b005b6102fd60048036038101906102f89190612520565b610a2a565b60405161030a9190612486565b60405180910390f35b61031b610ad7565b6040516103289190612376565b60405180910390f35b61034b60048036038101906103469190612308565b610afb565b6040516103589190612376565b60405180910390f35b61037b60048036038101906103769190612560565b610bad565b604051610388919061259c565b60405180910390f35b6103ab60048036038101906103a6919061243d565b610c65565b6040516103b89190612486565b60405180910390f35b6103c9610d0f565b6040516103d691906122b0565b60405180910390f35b6103f960048036038101906103f49190612560565b610da1565b005b610415600480360381019061041091906126ff565b610de5565b60405161042291906121fc565b60405180910390f35b61044560048036038101906104409190612308565b610e96565b6040516104529190612376565b60405180910390f35b610475600480360381019061047091906127c2565b610f6e565b005b610491600480360381019061048c9190612520565b610f84565b60405161049e91906128c0565b60405180910390f35b6104c160048036038101906104bc9190612997565b611093565b005b6104dd60048036038101906104d89190612308565b6110f5565b6040516104ea91906122b0565b60405180910390f35b61050d60048036038101906105089190612308565b61119c565b60405161051a91906121fc565b60405180910390f35b61053d60048036038101906105389190612308565b6112c8565b60405161054a9190612a29565b60405180910390f35b61056d60048036038101906105689190612a44565b61136d565b60405161057a91906121fc565b60405180910390f35b61059d60048036038101906105989190612560565b611401565b005b60007f80ac58cd000000000000000000000000000000000000000000000000000000007bffffffffffffffffffffffffffffffffffffffffffffffffffffffff1916827bffffffffffffffffffffffffffffffffffffffffffffffffffffffff1916148061066a57507f5b5e139f000000000000000000000000000000000000000000000000000000007bffffffffffffffffffffffffffffffffffffffffffffffffffffffff1916827bffffffffffffffffffffffffffffffffffffffffffffffffffffffff1916145b8061067a5750610679826114a5565b5b9050919050565b60606003805461069090612ab3565b80601f01602080910402602001604051908101604052809291908181526020018280546106bc90612ab3565b80156107095780601f106106de57610100808354040283529160200191610709565b820191906000526020600020905b8154815290600101906020018083116106ec57829003601f168201915b5050505050905090565b600061071e8261150f565b61075d576040517f08c379a000000000000000000000000000000000000000000000000000000000815260040161075490612b57565b60405180910390fd5b6007600083815260200190815260200160002060009054906101000a900473ffffffffffffffffffffffffffffffffffffffff169050919050565b60006107a382610afb565b90508073ffffffffffffffffffffffffffffffffffffffff168373ffffffffffffffffffffffffffffffffffffffff161415610814576040517f08c379a000000000000000000000000000000000000000000000000000000000815260040161080b90612be9565b60405180910390fd5b8073ffffffffffffffffffffffffffffffffffffffff1661083361157b565b73ffffffffffffffffffffffffffffffffffffffff16148061086257506108618161085c61157b565b61136d565b5b6108a1576040517f08c379a000000000000000000000000000000000000000000000000000000000815260040161089890612c7b565b60405180910390fd5b6108ab8383611583565b505050565b600260009054906101000a900473ffffffffffffffffffffffffffffffffffffffff1681565b600080600260009054906101000a900473ffffffffffffffffffffffffffffffffffffffff1690508073ffffffffffffffffffffffffffffffffffffffff16633b761483846040518263ffffffff1660e01b81526004016109379190612a29565b602060405180830381865afa158015610954573d6000803e3d6000fd5b505050506040513d601f19601f820116820180604052508101906109789190612cb0565b915050919050565b61099161098b61157b565b8261163c565b6109d0576040517f08c379a00000000000000000000000000000000000000000000000000000000081526004016109c790612d4f565b60405180910390fd5b6109db83838361171a565b505050565b6000600a600083815260200190815260200160002060009054906101000a900460ff169050919050565b610a2583838360405180602001604052806000815250611093565b505050565b600080600260009054906101000a900473ffffffffffffffffffffffffffffffffffffffff1690508073ffffffffffffffffffffffffffffffffffffffff1663aa9916e585856040518363ffffffff1660e01b8152600401610a8d929190612d6f565b602060405180830381865afa158015610aaa573d6000803e3d6000fd5b505050506040513d601f19601f82011682018060405250810190610ace9190612cb0565b91505092915050565b60008054906101000a900473ffffffffffffffffffffffffffffffffffffffff1681565b6000806005600084815260200190815260200160002060009054906101000a900473ffffffffffffffffffffffffffffffffffffffff169050600073ffffffffffffffffffffffffffffffffffffffff168173ffffffffffffffffffffffffffffffffffffffff161415610ba4576040517f08c379a0000000000000000000000000000000000000000000000000000000008152600401610b9b90612e0a565b60405180910390fd5b80915050919050565b60008073ffffffffffffffffffffffffffffffffffffffff168273ffffffffffffffffffffffffffffffffffffffff161415610c1e576040517f08c379a0000000000000000000000000000000000000000000000000000000008152600401610c1590612e9c565b60405180910390fd5b600660008373ffffffffffffffffffffffffffffffffffffffff1673ffffffffffffffffffffffffffffffffffffffff168152602001908152602001600020549050919050565b600080600260009054906101000a900473ffffffffffffffffffffffffffffffffffffffff1690508073ffffffffffffffffffffffffffffffffffffffff1663cfdcbf0b846040518263ffffffff1660e01b8152600401610cc69190612a29565b602060405180830381865afa158015610ce3573d6000803e3d6000fd5b505050506040513d601f19601f82011682018060405250810190610d079190612cb0565b915050919050565b606060048054610d1e90612ab3565b80601f0160208091040260200160405190810160405280929190818152602001828054610d4a90612ab3565b8015610d975780601f10610d6c57610100808354040283529160200191610d97565b820191906000526020600020905b815481529060010190602001808311610d7a57829003601f168201915b5050505050905090565b80600260006101000a81548173ffffffffffffffffffffffffffffffffffffffff021916908373ffffffffffffffffffffffffffffffffffffffff16021790555050565b6000600160009054906101000a900473ffffffffffffffffffffffffffffffffffffffff1673ffffffffffffffffffffffffffffffffffffffff1663c6b2d0d187878787876040518663ffffffff1660e01b8152600401610e4a959493929190612ebc565b602060405180830381865afa158015610e67573d6000803e3d6000fd5b505050506040513d601f19601f82011682018060405250810190610e8b9190612f2b565b905095945050505050565b6000600a600083815260200190815260200160002060009054906101000a900460ff16610ef8576040517f08c379a0000000000000000000000000000000000000000000000000000000008152600401610eef90612fca565b60405180910390fd5b6001610f0333610bad565b10610f43576040517f08c379a0000000000000000000000000000000000000000000000000000000008152600401610f3a9061305c565b60405180910390fd5b6000610f4f6009611981565b9050610f5b600961198f565b610f6533826119a5565b33915050919050565b610f80610f7961157b565b83836119c3565b5050565b60606000600260009054906101000a900473ffffffffffffffffffffffffffffffffffffffff1690506000610fb8856108d6565b90508060ff1667ffffffffffffffff811115610fd757610fd66125bc565b5b6040519080825280602002602001820160405280156110055781602001602082028036833780820191505090505b5092508173ffffffffffffffffffffffffffffffffffffffff166361c6aee686866040518363ffffffff1660e01b8152600401611043929190612d6f565b600060405180830381865afa158015611060573d6000803e3d6000fd5b505050506040513d6000823e3d601f19601f820116820180604052508101906110899190613113565b9250505092915050565b6110a461109e61157b565b8361163c565b6110e3576040517f08c379a00000000000000000000000000000000000000000000000000000000081526004016110da90612d4f565b60405180910390fd5b6110ef84848484611b30565b50505050565b60606111008261150f565b61113f576040517f08c379a0000000000000000000000000000000000000000000000000000000008152600401611136906131ce565b60405180910390fd5b6000611149611b8c565b905060008151116111695760405180602001604052806000815250611194565b8061117384611ba3565b60405160200161118492919061322a565b6040516020818303038152906040525b915050919050565b6000806111a8836112c8565b905060006111b582610c65565b905060006111c2836108d6565b905060008260ff16141561120b576040517f08c379a0000000000000000000000000000000000000000000000000000000008152600401611202906132c0565b60405180910390fd5b6000805b8360ff168160ff1610156112605760006112298683610f84565b90506112388887848488611d04565b1561124c5782806112489061330f565b9350505b5080806112589061330f565b91505061120f565b508260ff168160ff16141561129c576001600a600088815260200190815260200160002060006101000a81548160ff0219169083151502179055505b600a600087815260200190815260200160002060009054906101000a900460ff16945050505050919050565b6000600160009054906101000a900473ffffffffffffffffffffffffffffffffffffffff1673ffffffffffffffffffffffffffffffffffffffff166331148cee836040518263ffffffff1660e01b8152600401611325919061259c565b602060405180830381865afa158015611342573d6000803e3d6000fd5b505050506040513d601f19601f82011682018060405250810190611366919061334e565b9050919050565b6000600860008473ffffffffffffffffffffffffffffffffffffffff1673ffffffffffffffffffffffffffffffffffffffff16815260200190815260200160002060008373ffffffffffffffffffffffffffffffffffffffff1673ffffffffffffffffffffffffffffffffffffffff16815260200190815260200160002060009054906101000a900460ff16905092915050565b806000806101000a81548173ffffffffffffffffffffffffffffffffffffffff021916908373ffffffffffffffffffffffffffffffffffffffff16021790555060008054906101000a900473ffffffffffffffffffffffffffffffffffffffff16600160006101000a81548173ffffffffffffffffffffffffffffffffffffffff021916908373ffffffffffffffffffffffffffffffffffffffff16021790555050565b60007f01ffc9a7000000000000000000000000000000000000000000000000000000007bffffffffffffffffffffffffffffffffffffffffffffffffffffffff1916827bffffffffffffffffffffffffffffffffffffffffffffffffffffffff1916149050919050565b60008073ffffffffffffffffffffffffffffffffffffffff166005600084815260200190815260200160002060009054906101000a900473ffffffffffffffffffffffffffffffffffffffff1673ffffffffffffffffffffffffffffffffffffffff1614159050919050565b600033905090565b816007600083815260200190815260200160002060006101000a81548173ffffffffffffffffffffffffffffffffffffffff021916908373ffffffffffffffffffffffffffffffffffffffff160217905550808273ffffffffffffffffffffffffffffffffffffffff166115f683610afb565b73ffffffffffffffffffffffffffffffffffffffff167f8c5be1e5ebec7d5bd14f71427d1e84f3dd0314c0f7b2291e5b200ac8c7c3b92560405160405180910390a45050565b60006116478261150f565b611686576040517f08c379a000000000000000000000000000000000000000000000000000000000815260040161167d906133ed565b60405180910390fd5b600061169183610afb565b90508073ffffffffffffffffffffffffffffffffffffffff168473ffffffffffffffffffffffffffffffffffffffff1614806116d357506116d2818561136d565b5b8061171157508373ffffffffffffffffffffffffffffffffffffffff166116f984610713565b73ffffffffffffffffffffffffffffffffffffffff16145b91505092915050565b8273ffffffffffffffffffffffffffffffffffffffff1661173a82610afb565b73ffffffffffffffffffffffffffffffffffffffff1614611790576040517f08c379a00000000000000000000000000000000000000000000000000000000081526004016117879061347f565b60405180910390fd5b600073ffffffffffffffffffffffffffffffffffffffff168273ffffffffffffffffffffffffffffffffffffffff161415611800576040517f08c379a00000000000000000000000000000000000000000000000000000000081526004016117f790613511565b60405180910390fd5b61180b838383611d5e565b611816600082611583565b6001600660008573ffffffffffffffffffffffffffffffffffffffff1673ffffffffffffffffffffffffffffffffffffffff16815260200190815260200160002060008282546118669190613531565b925050819055506001600660008473ffffffffffffffffffffffffffffffffffffffff1673ffffffffffffffffffffffffffffffffffffffff16815260200190815260200160002060008282546118bd9190613565565b92505081905550816005600083815260200190815260200160002060006101000a81548173ffffffffffffffffffffffffffffffffffffffff021916908373ffffffffffffffffffffffffffffffffffffffff160217905550808273ffffffffffffffffffffffffffffffffffffffff168473ffffffffffffffffffffffffffffffffffffffff167fddf252ad1be2c89b69c2b068fc378daa952ba7f163c4a11628f55a4df523b3ef60405160405180910390a461197c838383611d63565b505050565b600081600001549050919050565b6001816000016000828254019250508190555050565b6119bf828260405180602001604052806000815250611d68565b5050565b8173ffffffffffffffffffffffffffffffffffffffff168373ffffffffffffffffffffffffffffffffffffffff161415611a32576040517f08c379a0000000000000000000000000000000000000000000000000000000008152600401611a2990613607565b60405180910390fd5b80600860008573ffffffffffffffffffffffffffffffffffffffff1673ffffffffffffffffffffffffffffffffffffffff16815260200190815260200160002060008473ffffffffffffffffffffffffffffffffffffffff1673ffffffffffffffffffffffffffffffffffffffff16815260200190815260200160002060006101000a81548160ff0219169083151502179055508173ffffffffffffffffffffffffffffffffffffffff168373ffffffffffffffffffffffffffffffffffffffff167f17307eab39ab6107e8899845ad3d59bd9653f200f220920489ca2b5937696c3183604051611b2391906121fc565b60405180910390a3505050565b611b3b84848461171a565b611b4784848484611dc3565b611b86576040517f08c379a0000000000000000000000000000000000000000000000000000000008152600401611b7d90613699565b60405180910390fd5b50505050565b606060405180602001604052806000815250905090565b60606000821415611beb576040518060400160405280600181526020017f30000000000000000000000000000000000000000000000000000000000000008152509050611cff565b600082905060005b60008214611c1d578080611c06906136b9565b915050600a82611c169190613731565b9150611bf3565b60008167ffffffffffffffff811115611c3957611c386125bc565b5b6040519080825280601f01601f191660200182016040528015611c6b5781602001600182028036833780820191505090505b5090505b60008514611cf857600182611c849190613531565b9150600a85611c939190613762565b6030611c9f9190613565565b60f81b818381518110611cb557611cb4613793565b5b60200101907effffffffffffffffffffffffffffffffffffffffffffffffffffffffffffff1916908160001a905350600a85611cf19190613731565b9450611c6f565b8093505050505b919050565b6000611d138686868686610de5565b905080611d55576040517f08c379a0000000000000000000000000000000000000000000000000000000008152600401611d4c90613834565b60405180910390fd5b95945050505050565b505050565b505050565b611d728383611f4b565b611d7f6000848484611dc3565b611dbe576040517f08c379a0000000000000000000000000000000000000000000000000000000008152600401611db590613699565b60405180910390fd5b505050565b6000611de48473ffffffffffffffffffffffffffffffffffffffff16612125565b15611f3e578373ffffffffffffffffffffffffffffffffffffffff1663150b7a02611e0d61157b565b8786866040518563ffffffff1660e01b8152600401611e2f94939291906138a9565b6020604051808303816000875af1925050508015611e6b57506040513d601f19601f82011682018060405250810190611e68919061390a565b60015b611eee573d8060008114611e9b576040519150601f19603f3d011682016040523d82523d6000602084013e611ea0565b606091505b50600081511415611ee6576040517f08c379a0000000000000000000000000000000000000000000000000000000008152600401611edd90613699565b60405180910390fd5b805181602001fd5b63150b7a0260e01b7bffffffffffffffffffffffffffffffffffffffffffffffffffffffff1916817bffffffffffffffffffffffffffffffffffffffffffffffffffffffff191614915050611f43565b600190505b949350505050565b600073ffffffffffffffffffffffffffffffffffffffff168273ffffffffffffffffffffffffffffffffffffffff161415611fbb576040517f08c379a0000000000000000000000000000000000000000000000000000000008152600401611fb290613983565b60405180910390fd5b611fc48161150f565b15612004576040517f08c379a0000000000000000000000000000000000000000000000000000000008152600401611ffb906139ef565b60405180910390fd5b61201060008383611d5e565b6001600660008473ffffffffffffffffffffffffffffffffffffffff1673ffffffffffffffffffffffffffffffffffffffff16815260200190815260200160002060008282546120609190613565565b92505081905550816005600083815260200190815260200160002060006101000a81548173ffffffffffffffffffffffffffffffffffffffff021916908373ffffffffffffffffffffffffffffffffffffffff160217905550808273ffffffffffffffffffffffffffffffffffffffff16600073ffffffffffffffffffffffffffffffffffffffff167fddf252ad1be2c89b69c2b068fc378daa952ba7f163c4a11628f55a4df523b3ef60405160405180910390a461212160008383611d63565b5050565b6000808273ffffffffffffffffffffffffffffffffffffffff163b119050919050565b6000604051905090565b600080fd5b600080fd5b60007fffffffff0000000000000000000000000000000000000000000000000000000082169050919050565b6121918161215c565b811461219c57600080fd5b50565b6000813590506121ae81612188565b92915050565b6000602082840312156121ca576121c9612152565b5b60006121d88482850161219f565b91505092915050565b60008115159050919050565b6121f6816121e1565b82525050565b600060208201905061221160008301846121ed565b92915050565b600081519050919050565b600082825260208201905092915050565b60005b83811015612251578082015181840152602081019050612236565b83811115612260576000848401525b50505050565b6000601f19601f8301169050919050565b600061228282612217565b61228c8185612222565b935061229c818560208601612233565b6122a581612266565b840191505092915050565b600060208201905081810360008301526122ca8184612277565b905092915050565b6000819050919050565b6122e5816122d2565b81146122f057600080fd5b50565b600081359050612302816122dc565b92915050565b60006020828403121561231e5761231d612152565b5b600061232c848285016122f3565b91505092915050565b600073ffffffffffffffffffffffffffffffffffffffff82169050919050565b600061236082612335565b9050919050565b61237081612355565b82525050565b600060208201905061238b6000830184612367565b92915050565b61239a81612355565b81146123a557600080fd5b50565b6000813590506123b781612391565b92915050565b600080604083850312156123d4576123d3612152565b5b60006123e2858286016123a8565b92505060206123f3858286016122f3565b9150509250929050565b600067ffffffffffffffff82169050919050565b61241a816123fd565b811461242557600080fd5b50565b60008135905061243781612411565b92915050565b60006020828403121561245357612452612152565b5b600061246184828501612428565b91505092915050565b600060ff82169050919050565b6124808161246a565b82525050565b600060208201905061249b6000830184612477565b92915050565b6000806000606084860312156124ba576124b9612152565b5b60006124c8868287016123a8565b93505060206124d9868287016123a8565b92505060406124ea868287016122f3565b9150509250925092565b6124fd8161246a565b811461250857600080fd5b50565b60008135905061251a816124f4565b92915050565b6000806040838503121561253757612536612152565b5b600061254585828601612428565b92505060206125568582860161250b565b9150509250929050565b60006020828403121561257657612575612152565b5b6000612584848285016123a8565b91505092915050565b612596816122d2565b82525050565b60006020820190506125b1600083018461258d565b92915050565b600080fd5b7f4e487b7100000000000000000000000000000000000000000000000000000000600052604160045260246000fd5b6125f482612266565b810181811067ffffffffffffffff82111715612613576126126125bc565b5b80604052505050565b6000612626612148565b905061263282826125eb565b919050565b600067ffffffffffffffff821115612652576126516125bc565b5b602082029050602081019050919050565b600080fd5b600061267b61267684612637565b61261c565b9050808382526020820190506020840283018581111561269e5761269d612663565b5b835b818110156126c757806126b3888261250b565b8452602084019350506020810190506126a0565b5050509392505050565b600082601f8301126126e6576126e56125b7565b5b81356126f6848260208601612668565b91505092915050565b600080600080600060a0868803121561271b5761271a612152565b5b6000612729888289016122f3565b955050602061273a88828901612428565b945050604061274b8882890161250b565b935050606086013567ffffffffffffffff81111561276c5761276b612157565b5b612778888289016126d1565b92505060806127898882890161250b565b9150509295509295909350565b61279f816121e1565b81146127aa57600080fd5b50565b6000813590506127bc81612796565b92915050565b600080604083850312156127d9576127d8612152565b5b60006127e7858286016123a8565b92505060206127f8858286016127ad565b9150509250929050565b600081519050919050565b600082825260208201905092915050565b6000819050602082019050919050565b6128378161246a565b82525050565b6000612849838361282e565b60208301905092915050565b6000602082019050919050565b600061286d82612802565b612877818561280d565b93506128828361281e565b8060005b838110156128b357815161289a888261283d565b97506128a583612855565b925050600181019050612886565b5085935050505092915050565b600060208201905081810360008301526128da8184612862565b905092915050565b600080fd5b600067ffffffffffffffff821115612902576129016125bc565b5b61290b82612266565b9050602081019050919050565b82818337600083830152505050565b600061293a612935846128e7565b61261c565b905082815260208101848484011115612956576129556128e2565b5b612961848285612918565b509392505050565b600082601f83011261297e5761297d6125b7565b5b813561298e848260208601612927565b91505092915050565b600080600080608085870312156129b1576129b0612152565b5b60006129bf878288016123a8565b94505060206129d0878288016123a8565b93505060406129e1878288016122f3565b925050606085013567ffffffffffffffff811115612a0257612a01612157565b5b612a0e87828801612969565b91505092959194509250565b612a23816123fd565b82525050565b6000602082019050612a3e6000830184612a1a565b92915050565b60008060408385031215612a5b57612a5a612152565b5b6000612a69858286016123a8565b9250506020612a7a858286016123a8565b9150509250929050565b7f4e487b7100000000000000000000000000000000000000000000000000000000600052602260045260246000fd5b60006002820490506001821680612acb57607f821691505b60208210811415612adf57612ade612a84565b5b50919050565b7f4552433732313a20617070726f76656420717565727920666f72206e6f6e657860008201527f697374656e7420746f6b656e0000000000000000000000000000000000000000602082015250565b6000612b41602c83612222565b9150612b4c82612ae5565b604082019050919050565b60006020820190508181036000830152612b7081612b34565b9050919050565b7f4552433732313a20617070726f76616c20746f2063757272656e74206f776e6560008201527f7200000000000000000000000000000000000000000000000000000000000000602082015250565b6000612bd3602183612222565b9150612bde82612b77565b604082019050919050565b60006020820190508181036000830152612c0281612bc6565b9050919050565b7f4552433732313a20617070726f76652063616c6c6572206973206e6f74206f7760008201527f6e6572206e6f7220617070726f76656420666f7220616c6c0000000000000000602082015250565b6000612c65603883612222565b9150612c7082612c09565b604082019050919050565b60006020820190508181036000830152612c9481612c58565b9050919050565b600081519050612caa816124f4565b92915050565b600060208284031215612cc657612cc5612152565b5b6000612cd484828501612c9b565b91505092915050565b7f4552433732313a207472616e736665722063616c6c6572206973206e6f74206f60008201527f776e6572206e6f7220617070726f766564000000000000000000000000000000602082015250565b6000612d39603183612222565b9150612d4482612cdd565b604082019050919050565b60006020820190508181036000830152612d6881612d2c565b9050919050565b6000604082019050612d846000830185612a1a565b612d916020830184612477565b9392505050565b7f4552433732313a206f776e657220717565727920666f72206e6f6e657869737460008201527f656e7420746f6b656e0000000000000000000000000000000000000000000000602082015250565b6000612df4602983612222565b9150612dff82612d98565b604082019050919050565b60006020820190508181036000830152612e2381612de7565b9050919050565b7f4552433732313a2062616c616e636520717565727920666f7220746865207a6560008201527f726f206164647265737300000000000000000000000000000000000000000000602082015250565b6000612e86602a83612222565b9150612e9182612e2a565b604082019050919050565b60006020820190508181036000830152612eb581612e79565b9050919050565b600060a082019050612ed1600083018861258d565b612ede6020830187612a1a565b612eeb6040830186612477565b8181036060830152612efd8185612862565b9050612f0c6080830184612477565b9695505050505050565b600081519050612f2581612796565b92915050565b600060208284031215612f4157612f40612152565b5b6000612f4f84828501612f16565b91505092915050565b7f4465677265654d616e616765722e736f6c3a20596f752063616e204e4f54206d60008201527f696e7420796f757220446567726565204e465421000000000000000000000000602082015250565b6000612fb4603483612222565b9150612fbf82612f58565b604082019050919050565b60006020820190508181036000830152612fe381612fa7565b9050919050565b7f4465677265654d616e616765722e736f6c3a20446f6e2774206265206772656560008201527f647921204f6e652044656772656520697320676f6f6420656e6f756768000000602082015250565b6000613046603d83612222565b915061305182612fea565b604082019050919050565b6000602082019050818103600083015261307581613039565b9050919050565b600061308f61308a84612637565b61261c565b905080838252602082019050602084028301858111156130b2576130b1612663565b5b835b818110156130db57806130c78882612c9b565b8452602084019350506020810190506130b4565b5050509392505050565b600082601f8301126130fa576130f96125b7565b5b815161310a84826020860161307c565b91505092915050565b60006020828403121561312957613128612152565b5b600082015167ffffffffffffffff81111561314757613146612157565b5b613153848285016130e5565b91505092915050565b7f4552433732314d657461646174613a2055524920717565727920666f72206e6f60008201527f6e6578697374656e7420746f6b656e0000000000000000000000000000000000602082015250565b60006131b8602f83612222565b91506131c38261315c565b604082019050919050565b600060208201905081810360008301526131e7816131ab565b9050919050565b600081905092915050565b600061320482612217565b61320e81856131ee565b935061321e818560208601612233565b80840191505092915050565b600061323682856131f9565b915061324282846131f9565b91508190509392505050565b7f4465677265654d616e616765722e736f6c3a204d617853656d6573746572203d60008201527f3d20302c20686f77657665722069742073686f756c646e277421000000000000602082015250565b60006132aa603a83612222565b91506132b58261324e565b604082019050919050565b600060208201905081810360008301526132d98161329d565b9050919050565b7f4e487b7100000000000000000000000000000000000000000000000000000000600052601160045260246000fd5b600061331a8261246a565b915060ff82141561332e5761332d6132e0565b5b600182019050919050565b60008151905061334881612411565b92915050565b60006020828403121561336457613363612152565b5b600061337284828501613339565b91505092915050565b7f4552433732313a206f70657261746f7220717565727920666f72206e6f6e657860008201527f697374656e7420746f6b656e0000000000000000000000000000000000000000602082015250565b60006133d7602c83612222565b91506133e28261337b565b604082019050919050565b60006020820190508181036000830152613406816133ca565b9050919050565b7f4552433732313a207472616e736665722066726f6d20696e636f72726563742060008201527f6f776e6572000000000000000000000000000000000000000000000000000000602082015250565b6000613469602583612222565b91506134748261340d565b604082019050919050565b600060208201905081810360008301526134988161345c565b9050919050565b7f4552433732313a207472616e7366657220746f20746865207a65726f2061646460008201527f7265737300000000000000000000000000000000000000000000000000000000602082015250565b60006134fb602483612222565b91506135068261349f565b604082019050919050565b6000602082019050818103600083015261352a816134ee565b9050919050565b600061353c826122d2565b9150613547836122d2565b92508282101561355a576135596132e0565b5b828203905092915050565b6000613570826122d2565b915061357b836122d2565b9250827fffffffffffffffffffffffffffffffffffffffffffffffffffffffffffffffff038211156135b0576135af6132e0565b5b828201905092915050565b7f4552433732313a20617070726f766520746f2063616c6c657200000000000000600082015250565b60006135f1601983612222565b91506135fc826135bb565b602082019050919050565b60006020820190508181036000830152613620816135e4565b9050919050565b7f4552433732313a207472616e7366657220746f206e6f6e20455243373231526560008201527f63656976657220696d706c656d656e7465720000000000000000000000000000602082015250565b6000613683603283612222565b915061368e82613627565b604082019050919050565b600060208201905081810360008301526136b281613676565b9050919050565b60006136c4826122d2565b91507fffffffffffffffffffffffffffffffffffffffffffffffffffffffffffffffff8214156136f7576136f66132e0565b5b600182019050919050565b7f4e487b7100000000000000000000000000000000000000000000000000000000600052601260045260246000fd5b600061373c826122d2565b9150613747836122d2565b92508261375757613756613702565b5b828204905092915050565b600061376d826122d2565b9150613778836122d2565b92508261378857613787613702565b5b828206905092915050565b7f4e487b7100000000000000000000000000000000000000000000000000000000600052603260045260246000fd5b7f4465677265654d616e616765722e736f6c3a20686173506173736564416c6c4360008201527f6f757273657328292066756e6374696f6e206661696c65642100000000000000602082015250565b600061381e603983612222565b9150613829826137c2565b604082019050919050565b6000602082019050818103600083015261384d81613811565b9050919050565b600081519050919050565b600082825260208201905092915050565b600061387b82613854565b613885818561385f565b9350613895818560208601612233565b61389e81612266565b840191505092915050565b60006080820190506138be6000830187612367565b6138cb6020830186612367565b6138d8604083018561258d565b81810360608301526138ea8184613870565b905095945050505050565b60008151905061390481612188565b92915050565b6000602082840312156139205761391f612152565b5b600061392e848285016138f5565b91505092915050565b7f4552433732313a206d696e7420746f20746865207a65726f2061646472657373600082015250565b600061396d602083612222565b915061397882613937565b602082019050919050565b6000602082019050818103600083015261399c81613960565b9050919050565b7f4552433732313a20746f6b656e20616c7265616479206d696e74656400000000600082015250565b60006139d9601c83612222565b91506139e4826139a3565b602082019050919050565b60006020820190508181036000830152613a08816139cc565b905091905056fea2646970667358221220f2f318e566f9c1d973d7589b02babc9a7a8268582f7421d6540a24900399be3164736f6c634300080a0033",
  "linkReferences": {},
  "deployedLinkReferences": {}
}