{
  "_format": "hh-sol-artifact-1",
  "contractName": "GradesManager",
  "sourceName": "contracts/GradesManager.sol",
  "abi": [
    {
      "inputs": [],
      "stateMutability": "nonpayable",
      "type": "constructor"
    },
    {
      "anonymous": false,
      "inputs": [
        {
          "indexed": true,
          "internalType": "address",
          "name": "previousOwner",
          "type": "address"
        },
        {
          "indexed": true,
          "internalType": "address",
          "name": "newOwner",
          "type": "address"
        }
      ],
      "name": "OwnershipTransferred",
      "type": "event"
    },
    {
      "inputs": [
        {
          "internalType": "address",
          "name": "_managerAddress",
          "type": "address"
        }
      ],
      "name": "appointManager",
      "outputs": [],
      "stateMutability": "nonpayable",
      "type": "function"
    },
    {
      "inputs": [
        {
          "internalType": "uint64",
          "name": "_profID",
          "type": "uint64"
        }
      ],
      "name": "approveProfessor",
      "outputs": [],
      "stateMutability": "nonpayable",
      "type": "function"
    },
    {
      "inputs": [
        {
          "internalType": "address",
          "name": "",
          "type": "address"
        }
      ],
      "name": "approvedManagers",
      "outputs": [
        {
          "internalType": "bool",
          "name": "",
          "type": "bool"
        }
      ],
      "stateMutability": "view",
      "type": "function"
    },
    {
      "inputs": [
        {
          "internalType": "address",
          "name": "",
          "type": "address"
        }
      ],
      "name": "approvedProfessors",
      "outputs": [
        {
          "internalType": "bool",
          "name": "",
          "type": "bool"
        }
      ],
      "stateMutability": "view",
      "type": "function"
    },
    {
      "inputs": [
        {
          "internalType": "uint256",
          "name": "_am",
          "type": "uint256"
        }
      ],
      "name": "getStudentPS",
      "outputs": [
        {
          "internalType": "uint64",
          "name": "",
          "type": "uint64"
        }
      ],
      "stateMutability": "view",
      "type": "function"
    },
    {
      "inputs": [],
      "name": "hardCodeForTesting",
      "outputs": [],
      "stateMutability": "nonpayable",
      "type": "function"
    },
    {
      "inputs": [
        {
          "internalType": "uint256",
          "name": "_userPassword",
          "type": "uint256"
        }
      ],
      "name": "hardCodeRegisterStudents",
      "outputs": [],
      "stateMutability": "nonpayable",
      "type": "function"
    },
    {
      "inputs": [
        {
          "internalType": "uint256",
          "name": "_userPassword",
          "type": "uint256"
        }
      ],
      "name": "hardCodeUploadGrades_B",
      "outputs": [],
      "stateMutability": "nonpayable",
      "type": "function"
    },
    {
      "inputs": [
        {
          "internalType": "uint256",
          "name": "_am",
          "type": "uint256"
        },
        {
          "internalType": "uint64",
          "name": "_PS",
          "type": "uint64"
        },
        {
          "internalType": "uint8",
          "name": "_semID",
          "type": "uint8"
        },
        {
          "internalType": "uint8[]",
          "name": "_CoursesTypeNum",
          "type": "uint8[]"
        },
        {
          "internalType": "uint8",
          "name": "_maxCourseTypes",
          "type": "uint8"
        }
      ],
      "name": "hasPassedAllCourses",
      "outputs": [
        {
          "internalType": "bool",
          "name": "result",
          "type": "bool"
        }
      ],
      "stateMutability": "view",
      "type": "function"
    },
    {
      "inputs": [
        {
          "internalType": "address",
          "name": "_caller",
          "type": "address"
        }
      ],
      "name": "isApprovedProf",
      "outputs": [
        {
          "internalType": "bool",
          "name": "",
          "type": "bool"
        }
      ],
      "stateMutability": "view",
      "type": "function"
    },
    {
      "inputs": [],
      "name": "owner",
      "outputs": [
        {
          "internalType": "address",
          "name": "",
          "type": "address"
        }
      ],
      "stateMutability": "view",
      "type": "function"
    },
    {
      "inputs": [
        {
          "internalType": "uint256",
          "name": "",
          "type": "uint256"
        }
      ],
      "name": "professors",
      "outputs": [
        {
          "internalType": "uint64",
          "name": "id",
          "type": "uint64"
        },
        {
          "internalType": "address",
          "name": "addr",
          "type": "address"
        },
        {
          "internalType": "string",
          "name": "name",
          "type": "string"
        }
      ],
      "stateMutability": "view",
      "type": "function"
    },
    {
      "inputs": [
        {
          "internalType": "uint256",
          "name": "_am",
          "type": "uint256"
        },
        {
          "internalType": "address",
          "name": "_addr",
          "type": "address"
        },
        {
          "internalType": "uint64",
          "name": "_ps",
          "type": "uint64"
        }
      ],
      "name": "registerNewStudent",
      "outputs": [],
      "stateMutability": "nonpayable",
      "type": "function"
    },
    {
      "inputs": [
        {
          "internalType": "uint64",
          "name": "_profID",
          "type": "uint64"
        },
        {
          "internalType": "address",
          "name": "_profAddress",
          "type": "address"
        },
        {
          "internalType": "string",
          "name": "_name",
          "type": "string"
        }
      ],
      "name": "registerProfessor",
      "outputs": [],
      "stateMutability": "nonpayable",
      "type": "function"
    },
    {
      "inputs": [],
      "name": "renounceOwnership",
      "outputs": [],
      "stateMutability": "nonpayable",
      "type": "function"
    },
    {
      "inputs": [
        {
          "internalType": "address",
          "name": "_address",
          "type": "address"
        }
      ],
      "name": "setSecreteryContractAddress",
      "outputs": [],
      "stateMutability": "nonpayable",
      "type": "function"
    },
    {
      "inputs": [],
      "name": "studentNum",
      "outputs": [
        {
          "internalType": "uint256",
          "name": "",
          "type": "uint256"
        }
      ],
      "stateMutability": "view",
      "type": "function"
    },
    {
      "inputs": [
        {
          "internalType": "uint256",
          "name": "",
          "type": "uint256"
        }
      ],
      "name": "students",
      "outputs": [
        {
          "internalType": "address",
          "name": "addr",
          "type": "address"
        },
        {
          "internalType": "uint256",
          "name": "am",
          "type": "uint256"
        },
        {
          "internalType": "uint64",
          "name": "ps",
          "type": "uint64"
        },
        {
          "internalType": "bool",
          "name": "canGraduate",
          "type": "bool"
        }
      ],
      "stateMutability": "view",
      "type": "function"
    },
    {
      "inputs": [],
      "name": "totalApprovedProfessors",
      "outputs": [
        {
          "internalType": "uint64",
          "name": "",
          "type": "uint64"
        }
      ],
      "stateMutability": "view",
      "type": "function"
    },
    {
      "inputs": [],
      "name": "totalManagers",
      "outputs": [
        {
          "internalType": "uint64",
          "name": "",
          "type": "uint64"
        }
      ],
      "stateMutability": "view",
      "type": "function"
    },
    {
      "inputs": [],
      "name": "totalProfessors",
      "outputs": [
        {
          "internalType": "uint64",
          "name": "",
          "type": "uint64"
        }
      ],
      "stateMutability": "view",
      "type": "function"
    },
    {
      "inputs": [
        {
          "internalType": "address",
          "name": "newOwner",
          "type": "address"
        }
      ],
      "name": "transferOwnership",
      "outputs": [],
      "stateMutability": "nonpayable",
      "type": "function"
    },
    {
      "inputs": [
        {
          "internalType": "uint32",
          "name": "_courseID",
          "type": "uint32"
        },
        {
          "internalType": "uint8",
          "name": "_courseSemester",
          "type": "uint8"
        },
        {
          "internalType": "uint8",
          "name": "_courseType",
          "type": "uint8"
        },
        {
          "internalType": "uint256[]",
          "name": "_studentsAM",
          "type": "uint256[]"
        },
        {
          "internalType": "uint8[]",
          "name": "_studentGrades",
          "type": "uint8[]"
        }
      ],
      "name": "uploadGrades",
      "outputs": [],
      "stateMutability": "nonpayable",
      "type": "function"
    }
  ],
  "bytecode": "0x60806040523480156200001157600080fd5b506200003262000026620000e060201b60201c565b620000e860201b60201c565b62000042620001ac60201b60201c565b30600160006101000a81548173ffffffffffffffffffffffffffffffffffffffff021916908373ffffffffffffffffffffffffffffffffffffffff160217905550620000b6600160009054906101000a900473ffffffffffffffffffffffffffffffffffffffff16620003f160201b60201c565b620000c86001620004c460201b60201c565b620000da6001620005bd60201b60201c565b62002a5c565b600033905090565b60008060009054906101000a900473ffffffffffffffffffffffffffffffffffffffff169050816000806101000a81548173ffffffffffffffffffffffffffffffffffffffff021916908373ffffffffffffffffffffffffffffffffffffffff1602179055508173ffffffffffffffffffffffffffffffffffffffff168173ffffffffffffffffffffffffffffffffffffffff167f8be0079c531659141344cd1fd0a4f28419497f9722a3daafe3b4186f6b6457e060405160405180910390a35050565b620001d173ab8483f64d9c6d1ecf9b849ae677dd3315835cb26200142a60201b60201c565b620001f6734b20993bc481177ec7e8f571cecae8a9e22c02db6200142a60201b60201c565b6200021b7378731d3ca6b7e34ac0f824c42a7cc18a495cabab6200142a60201b60201c565b6200024073f39fd6e51aad88f6f4ce6ab8827279cfffb922666200142a60201b60201c565b6200029e6101a6735b38da6a701c568545dcfcb03fcb875f56beddc46040518060400160405280600681526020017f4b6f756c69730000000000000000000000000000000000000000000000000000815250620015f960201b60201c565b620002fb600d73ab8483f64d9c6d1ecf9b849ae677dd3315835cb26040518060400160405280600781526020017f4769616e6e697300000000000000000000000000000000000000000000000000815250620015f960201b60201c565b620003596115c3734b20993bc481177ec7e8f571cecae8a9e22c02db6040518060400160405280600781526020017f58726973746f7300000000000000000000000000000000000000000000000000815250620015f960201b60201c565b620003b7617a6973f39fd6e51aad88f6f4ce6ab8827279cfffb922666040518060400160405280600b81526020017f486172645f4861745f2331000000000000000000000000000000000000000000815250620015f960201b60201c565b620003ca6101a6620017a360201b60201c565b620003dc600d620017a360201b60201c565b620003ef617a69620017a360201b60201c565b565b62000401620000e060201b60201c565b73ffffffffffffffffffffffffffffffffffffffff16620004276200199660201b60201c565b73ffffffffffffffffffffffffffffffffffffffff161462000480576040517f08c379a00000000000000000000000000000000000000000000000000000000081526004016200047790620022b9565b60405180910390fd5b80600160006101000a81548173ffffffffffffffffffffffffffffffffffffffff021916908373ffffffffffffffffffffffffffffffffffffffff16021790555050565b6000600190508082146200050f576040517f08c379a0000000000000000000000000000000000000000000000000000000008152600401620005069062002351565b60405180910390fd5b6200053961a8cf73ab8483f64d9c6d1ecf9b849ae677dd3315835cb26001620019bf60201b60201c565b6200056361b2dd735b38da6a701c568545dcfcb03fcb875f56beddc46001620019bf60201b60201c565b6200058e62010d0a735b38da6a701c568545dcfcb03fcb875f56beddc46001620019bf60201b60201c565b620005b962010d2f73ab8483f64d9c6d1ecf9b849ae677dd3315835cb26001620019bf60201b60201c565b5050565b60006001905080821462000608576040517f08c379a0000000000000000000000000000000000000000000000000000000008152600401620005ff9062002351565b60405180910390fd5b6000600467ffffffffffffffff81111562000628576200062762002373565b5b604051908082528060200260200182016040528015620006575781602001602082028036833780820191505090505b50905062010d0a81600081518110620006755762000674620023a2565b5b60200260200101818152505062010d2f816001815181106200069c576200069b620023a2565b5b60200260200101818152505061a8cf81600281518110620006c257620006c1620023a2565b5b60200260200101818152505061b2dd81600381518110620006e857620006e7620023a2565b5b6020026020010181815250506000600467ffffffffffffffff81111562000714576200071362002373565b5b604051908082528060200260200182016040528015620007435781602001602082028036833780820191505090505b5090506005816000815181106200075f576200075e620023a2565b5b602002602001019060ff16908160ff16815250506005816001815181106200078c576200078b620023a2565b5b602002602001019060ff16908160ff1681525050600581600281518110620007b957620007b8620023a2565b5b602002602001019060ff16908160ff1681525050600581600381518110620007e657620007e5620023a2565b5b602002602001019060ff16908160ff1681525050620008126103e9600080858562001ba660201b60201c565b6000600267ffffffffffffffff81111562000832576200083162002373565b5b604051908082528060200260200182016040528015620008615781602001602082028036833780820191505090505b50905062010d0a816000815181106200087f576200087e620023a2565b5b60200260200101818152505061a8cf81600181518110620008a557620008a4620023a2565b5b6020026020010181815250506000600267ffffffffffffffff811115620008d157620008d062002373565b5b604051908082528060200260200182016040528015620009005781602001602082028036833780820191505090505b5090506005816000815181106200091c576200091b620023a2565b5b602002602001019060ff16908160ff1681525050600581600181518110620009495762000948620023a2565b5b602002602001019060ff16908160ff1681525050620009756107d1600180858562001ba660201b60201c565b6000600367ffffffffffffffff81111562000995576200099462002373565b5b604051908082528060200260200182016040528015620009c45781602001602082028036833780820191505090505b50905062010d0a81600081518110620009e257620009e1620023a2565b5b60200260200101818152505062010d2f8160018151811062000a095762000a08620023a2565b5b60200260200101818152505061a8cf8160028151811062000a2f5762000a2e620023a2565b5b6020026020010181815250506000600367ffffffffffffffff81111562000a5b5762000a5a62002373565b5b60405190808252806020026020018201604052801562000a8a5781602001602082028036833780820191505090505b50905060058160008151811062000aa65762000aa5620023a2565b5b602002602001019060ff16908160ff168152505060058160018151811062000ad35762000ad2620023a2565b5b602002602001019060ff16908160ff168152505060058160028151811062000b005762000aff620023a2565b5b602002602001019060ff16908160ff168152505062000b2d610bb960026000858562001ba660201b60201c565b6000600467ffffffffffffffff81111562000b4d5762000b4c62002373565b5b60405190808252806020026020018201604052801562000b7c5781602001602082028036833780820191505090505b50905062010d0a8160008151811062000b9a5762000b99620023a2565b5b60200260200101818152505062010d2f8160018151811062000bc15762000bc0620023a2565b5b60200260200101818152505061a8cf8160028151811062000be75762000be6620023a2565b5b60200260200101818152505061b2dd8160038151811062000c0d5762000c0c620023a2565b5b6020026020010181815250506000600467ffffffffffffffff81111562000c395762000c3862002373565b5b60405190808252806020026020018201604052801562000c685781602001602082028036833780820191505090505b50905060058160038151811062000c845762000c83620023a2565b5b602002602001019060ff16908160ff168152505060058160008151811062000cb15762000cb0620023a2565b5b602002602001019060ff16908160ff168152505060058160018151811062000cde5762000cdd620023a2565b5b602002602001019060ff16908160ff168152505060058160028151811062000d0b5762000d0a620023a2565b5b602002602001019060ff16908160ff168152505062000d38610bba60026000858562001ba660201b60201c565b6000600267ffffffffffffffff81111562000d585762000d5762002373565b5b60405190808252806020026020018201604052801562000d875781602001602082028036833780820191505090505b50905062010d0a8160008151811062000da55762000da4620023a2565b5b60200260200101818152505061a8cf8160018151811062000dcb5762000dca620023a2565b5b6020026020010181815250506000600267ffffffffffffffff81111562000df75762000df662002373565b5b60405190808252806020026020018201604052801562000e265781602001602082028036833780820191505090505b50905060058160008151811062000e425762000e41620023a2565b5b602002602001019060ff16908160ff168152505060058160018151811062000e6f5762000e6e620023a2565b5b602002602001019060ff16908160ff168152505062000e9c610fa160036000858562001ba660201b60201c565b6000600467ffffffffffffffff81111562000ebc5762000ebb62002373565b5b60405190808252806020026020018201604052801562000eeb5781602001602082028036833780820191505090505b50905062010d0a8160008151811062000f095762000f08620023a2565b5b60200260200101818152505062010d2f8160018151811062000f305762000f2f620023a2565b5b60200260200101818152505061a8cf8160028151811062000f565762000f55620023a2565b5b60200260200101818152505061b2dd8160038151811062000f7c5762000f7b620023a2565b5b6020026020010181815250506000600467ffffffffffffffff81111562000fa85762000fa762002373565b5b60405190808252806020026020018201604052801562000fd75781602001602082028036833780820191505090505b50905060058160008151811062000ff35762000ff2620023a2565b5b602002602001019060ff16908160ff168152505060058160018151811062001020576200101f620023a2565b5b602002602001019060ff16908160ff16815250506005816002815181106200104d576200104c620023a2565b5b602002602001019060ff16908160ff16815250506005816003815181106200107a5762001079620023a2565b5b602002602001019060ff16908160ff1681525050620010a7610fa260036001858562001ba660201b60201c565b6000600467ffffffffffffffff811115620010c757620010c662002373565b5b604051908082528060200260200182016040528015620010f65781602001602082028036833780820191505090505b50905062010d0a81600081518110620011145762001113620023a2565b5b60200260200101818152505062010d2f816001815181106200113b576200113a620023a2565b5b60200260200101818152505061a8cf81600281518110620011615762001160620023a2565b5b60200260200101818152505061b2dd81600381518110620011875762001186620023a2565b5b6020026020010181815250506000600467ffffffffffffffff811115620011b357620011b262002373565b5b604051908082528060200260200182016040528015620011e25781602001602082028036833780820191505090505b509050600581600081518110620011fe57620011fd620023a2565b5b602002602001019060ff16908160ff16815250506005816001815181106200122b576200122a620023a2565b5b602002602001019060ff16908160ff1681525050600581600281518110620012585762001257620023a2565b5b602002602001019060ff16908160ff1681525050600581600381518110620012855762001284620023a2565b5b602002602001019060ff16908160ff1681525050620012b2610fa360036000858562001ba660201b60201c565b6000600267ffffffffffffffff811115620012d257620012d162002373565b5b604051908082528060200260200182016040528015620013015781602001602082028036833780820191505090505b50905062010d0a816000815181106200131f576200131e620023a2565b5b60200260200101818152505061a8cf81600181518110620013455762001344620023a2565b5b6020026020010181815250506000600267ffffffffffffffff81111562001371576200137062002373565b5b604051908082528060200260200182016040528015620013a05781602001602082028036833780820191505090505b509050600581600081518110620013bc57620013bb620023a2565b5b602002602001019060ff16908160ff1681525050600581600181518110620013e957620013e8620023a2565b5b602002602001019060ff16908160ff168152505062001416610fa460036001858562001ba660201b60201c565b505050505050505050505050505050505050565b6200143a620000e060201b60201c565b73ffffffffffffffffffffffffffffffffffffffff16620014606200199660201b60201c565b73ffffffffffffffffffffffffffffffffffffffff1614620014b9576040517f08c379a0000000000000000000000000000000000000000000000000000000008152600401620014b090620022b9565b60405180910390fd5b60001515600660008373ffffffffffffffffffffffffffffffffffffffff1673ffffffffffffffffffffffffffffffffffffffff16815260200190815260200160002060009054906101000a900460ff161515146200154f576040517f08c379a0000000000000000000000000000000000000000000000000000000008152600401620015469062002447565b60405180910390fd5b6005600081819054906101000a900467ffffffffffffffff16809291906200157790620024ac565b91906101000a81548167ffffffffffffffff021916908367ffffffffffffffff160217905550506001600660008373ffffffffffffffffffffffffffffffffffffffff1673ffffffffffffffffffffffffffffffffffffffff16815260200190815260200160002060006101000a81548160ff02191690831515021790555050565b6000600660003373ffffffffffffffffffffffffffffffffffffffff1673ffffffffffffffffffffffffffffffffffffffff16815260200190815260200160002060009054906101000a900460ff169050806200168d576040517f08c379a0000000000000000000000000000000000000000000000000000000008152600401620016849062002558565b60405180910390fd5b600060046000600160149054906101000a900467ffffffffffffffff1667ffffffffffffffff1681526020019081526020016000209050848160000160006101000a81548167ffffffffffffffff021916908367ffffffffffffffff160217905550838160000160086101000a81548173ffffffffffffffffffffffffffffffffffffffff021916908373ffffffffffffffffffffffffffffffffffffffff160217905550828160010190805190602001906200174c929190620021a8565b506001601481819054906101000a900467ffffffffffffffff16809291906200177590620024ac565b91906101000a81548167ffffffffffffffff021916908367ffffffffffffffff160217905550505050505050565b6000600660003373ffffffffffffffffffffffffffffffffffffffff1673ffffffffffffffffffffffffffffffffffffffff16815260200190815260200160002060009054906101000a900460ff1690508062001837576040517f08c379a00000000000000000000000000000000000000000000000000000000081526004016200182e9062002558565b60405180910390fd5b60005b600160149054906101000a900467ffffffffffffffff1667ffffffffffffffff168111620019915760006004600083815260200190815260200160002090508367ffffffffffffffff168160000160009054906101000a900467ffffffffffffffff1667ffffffffffffffff1614156200197a576001600360008360000160089054906101000a900473ffffffffffffffffffffffffffffffffffffffff1673ffffffffffffffffffffffffffffffffffffffff1673ffffffffffffffffffffffffffffffffffffffff16815260200190815260200160002060006101000a81548160ff0219169083151502179055506002600081819054906101000a900467ffffffffffffffff16809291906200195290620024ac565b91906101000a81548167ffffffffffffffff021916908367ffffffffffffffff160217905550505b508080620019889062002584565b9150506200183a565b505050565b60008060009054906101000a900473ffffffffffffffffffffffffffffffffffffffff16905090565b600073ffffffffffffffffffffffffffffffffffffffff16600160009054906101000a900473ffffffffffffffffffffffffffffffffffffffff1673ffffffffffffffffffffffffffffffffffffffff16141562001a54576040517f08c379a000000000000000000000000000000000000000000000000000000000815260040162001a4b9062002648565b60405180910390fd5b62001a6a3362001f1560201b62000a5a1760201c565b62001aac576040517f08c379a000000000000000000000000000000000000000000000000000000000815260040162001aa390620026e0565b60405180910390fd5b62001af86040518060400160405280601a81526020017f5b474d5d204465706c6f796572202d204d73672e53656e646572000000000000815250336200203360201b6200268e1760201c565b6000600760008581526020019081526020016000209050838160010181905550828160000160006101000a81548173ffffffffffffffffffffffffffffffffffffffff021916908373ffffffffffffffffffffffffffffffffffffffff160217905550818160020160006101000a81548167ffffffffffffffff021916908367ffffffffffffffff1602179055506008600081548092919062001b9b9062002584565b919050555050505050565b600073ffffffffffffffffffffffffffffffffffffffff16600160009054906101000a900473ffffffffffffffffffffffffffffffffffffffff1673ffffffffffffffffffffffffffffffffffffffff16141562001c3b576040517f08c379a000000000000000000000000000000000000000000000000000000000815260040162001c329062002648565b60405180910390fd5b62001c513362001f1560201b62000a5a1760201c565b62001c93576040517f08c379a000000000000000000000000000000000000000000000000000000000815260040162001c8a90620026e0565b60405180910390fd5b62001cdf6040518060400160405280601a81526020017f5b474d5d204465706c6f796572202d204d73672e53656e646572000000000000815250336200203360201b6200268e1760201c565b600082511162001d26576040517f08c379a000000000000000000000000000000000000000000000000000000000815260040162001d1d9062002778565b60405180910390fd5b805182511462001d6d576040517f08c379a000000000000000000000000000000000000000000000000000000000815260040162001d649062002836565b60405180910390fd5b60005b82518163ffffffff16101562001f0d57600060076000858463ffffffff168151811062001da25762001da1620023a2565b5b6020026020010151815260200190815260200160002090506000838363ffffffff168151811062001dd85762001dd7620023a2565b5b602002602001015190508160030160008860ff1660ff16815260200190815260200160002060008760ff1660ff16815260200190815260200160002060405180608001604052808a63ffffffff1681526020018960ff1681526020018360ff1681526020018860ff168152509080600181540180825580915050600190039060005260206000200160009091909190915060008201518160000160006101000a81548163ffffffff021916908363ffffffff16021790555060208201518160000160046101000a81548160ff021916908360ff16021790555060408201518160000160056101000a81548160ff021916908360ff16021790555060608201518160000160066101000a81548160ff021916908360ff16021790555050505050808062001f049062002868565b91505062001d70565b505050505050565b600062001f636040518060400160405280600b81526020017f54686520706172616d3a20000000000000000000000000000000000000000000815250836200203360201b6200268e1760201c565b62001fdf6040518060600160405280602381526020016200659160239139600360008573ffffffffffffffffffffffffffffffffffffffff1673ffffffffffffffffffffffffffffffffffffffff16815260200190815260200160002060009054906101000a900460ff16620020d960201b6200272a1760201c565b600360008373ffffffffffffffffffffffffffffffffffffffff1673ffffffffffffffffffffffffffffffffffffffff16815260200190815260200160002060009054906101000a900460ff169050919050565b620020d582826040516024016200204c92919062002972565b6040516020818303038152906040527f319af333000000000000000000000000000000000000000000000000000000007bffffffffffffffffffffffffffffffffffffffffffffffffffffffff19166020820180517bffffffffffffffffffffffffffffffffffffffffffffffffffffffff83818316178352505050506200217f60201b60201c565b5050565b6200217b8282604051602401620020f2929190620029c3565b6040516020818303038152906040527fc3b55635000000000000000000000000000000000000000000000000000000007bffffffffffffffffffffffffffffffffffffffffffffffffffffffff19166020820180517bffffffffffffffffffffffffffffffffffffffffffffffffffffffff83818316178352505050506200217f60201b60201c565b5050565b60008151905060006a636f6e736f6c652e6c6f679050602083016000808483855afa5050505050565b828054620021b69062002a26565b90600052602060002090601f016020900481019282620021da576000855562002226565b82601f10620021f557805160ff191683800117855562002226565b8280016001018555821562002226579182015b828111156200222557825182559160200191906001019062002208565b5b50905062002235919062002239565b5090565b5b80821115620022545760008160009055506001016200223a565b5090565b600082825260208201905092915050565b7f4f776e61626c653a2063616c6c6572206973206e6f7420746865206f776e6572600082015250565b6000620022a160208362002258565b9150620022ae8262002269565b602082019050919050565b60006020820190508181036000830152620022d48162002292565b9050919050565b7f4772616465734d616e616765722e736f6c202d20576f726e672050617373776f60008201527f72642c20506c656173652054727920416761696e000000000000000000000000602082015250565b60006200233960348362002258565b91506200234682620022db565b604082019050919050565b600060208201905081810360008301526200236c816200232a565b9050919050565b7f4e487b7100000000000000000000000000000000000000000000000000000000600052604160045260246000fd5b7f4e487b7100000000000000000000000000000000000000000000000000000000600052603260045260246000fd5b7f5365637265746572792e736f6c3a2054686973206164647265737320616c726560008201527f61647920686173206d616e61676572206c6576656c2061636365737321000000602082015250565b60006200242f603d8362002258565b91506200243c82620023d1565b604082019050919050565b60006020820190508181036000830152620024628162002420565b9050919050565b7f4e487b7100000000000000000000000000000000000000000000000000000000600052601160045260246000fd5b600067ffffffffffffffff82169050919050565b6000620024b98262002498565b915067ffffffffffffffff821415620024d757620024d662002469565b5b600182019050919050565b7f5365637265746572792e736f6c3a204f6e6c792061204d616e6167657220636160008201527f6e20706572666f726d207468697320616374696f6e2100000000000000000000602082015250565b60006200254060368362002258565b91506200254d82620024e2565b604082019050919050565b60006020820190508181036000830152620025738162002531565b9050919050565b6000819050919050565b600062002591826200257a565b91507fffffffffffffffffffffffffffffffffffffffffffffffffffffffffffffffff821415620025c757620025c662002469565b5b600182019050919050565b7f6d6f645f6f6e6c7950726f663a2053656372657465727920436f6e747261637460008201527f204164647265737320686173206e6f74206265656e2073657420796574210000602082015250565b600062002630603e8362002258565b91506200263d82620025d2565b604082019050919050565b60006020820190508181036000830152620026638162002621565b9050919050565b7f6d6f645f6f6e6c7950726f663a2043616c6c6572206973206e6f74206120707260008201527f6f666573736f7221000000000000000000000000000000000000000000000000602082015250565b6000620026c860288362002258565b9150620026d5826200266a565b604082019050919050565b60006020820190508181036000830152620026fb81620026b9565b9050919050565b7f66726f6d46756e5f75706c6f61644772616465733a204e6f204164647265737360008201527f65732068617665206265656e20696e7075746564210000000000000000000000602082015250565b60006200276060358362002258565b91506200276d8262002702565b604082019050919050565b60006020820190508181036000830152620027938162002751565b9050919050565b7f66726f6d46756e5f75706c6f61644772616465733a205374756465627420494460008201527f277320616e642074686520616d6f756e74206f6620677261646573206172652060208201527f6e6f7420657175616c2100000000000000000000000000000000000000000000604082015250565b60006200281e604a8362002258565b91506200282b826200279a565b606082019050919050565b6000602082019050818103600083015262002851816200280f565b9050919050565b600063ffffffff82169050919050565b6000620028758262002858565b915063ffffffff8214156200288f576200288e62002469565b5b600182019050919050565b600081519050919050565b60005b83811015620028c5578082015181840152602081019050620028a8565b83811115620028d5576000848401525b50505050565b6000601f19601f8301169050919050565b6000620028f9826200289a565b62002905818562002258565b935062002917818560208601620028a5565b6200292281620028db565b840191505092915050565b600073ffffffffffffffffffffffffffffffffffffffff82169050919050565b60006200295a826200292d565b9050919050565b6200296c816200294d565b82525050565b600060408201905081810360008301526200298e8185620028ec565b90506200299f602083018462002961565b9392505050565b60008115159050919050565b620029bd81620029a6565b82525050565b60006040820190508181036000830152620029df8185620028ec565b9050620029f06020830184620029b2565b9392505050565b7f4e487b7100000000000000000000000000000000000000000000000000000000600052602260045260246000fd5b6000600282049050600182168062002a3f57607f821691505b6020821081141562002a565762002a55620029f7565b5b50919050565b613b258062002a6c6000396000f3fe608060405234801561001057600080fd5b506004361061014d5760003560e01c806358a71d25116100c3578063b3d4c7551161007c578063b3d4c75514610379578063b8f2b5e714610395578063c6b2d0d1146103c7578063d5eb7cf4146103f7578063edd5b87d14610415578063f2fde38b146104315761014d565b806358a71d25146102c957806363c0f133146102e75780636ab7886c14610317578063715018a614610321578063871662531461032b5780638da5cb5b1461035b5761014d565b806330715c631161011557806330715c63146101f757806331148cee14610215578063343ba85d1461024557806345c3eca0146102755780634b59933c14610291578063563412cf146102ad5761014d565b806306ead22e14610152578063090f5a251461018557806312b718e9146101a1578063136d2593146101bd57806313915616146101db575b600080fd5b61016c600480360381019061016791906129a8565b61044d565b60405161017c9493929190612a63565b60405180910390f35b61019f600480360381019061019a9190612c46565b6104be565b005b6101bb60048036038101906101b69190612cb5565b610661565b005b6101c5610818565b6040516101d29190612ce2565b60405180910390f35b6101f560048036038101906101f09190612cfd565b610832565b005b6101ff610a1b565b60405161020c9190612d2a565b60405180910390f35b61022f600480360381019061022a91906129a8565b610a21565b60405161023c9190612ce2565b60405180910390f35b61025f600480360381019061025a9190612cb5565b610a5a565b60405161026c9190612d45565b60405180910390f35b61028f600480360381019061028a91906129a8565b610b5d565b005b6102ab60048036038101906102a69190612f60565b610c33565b005b6102c760048036038101906102c29190612cb5565b610f72565b005b6102d1611032565b6040516102de9190612ce2565b60405180910390f35b61030160048036038101906102fc9190612cb5565b61104c565b60405161030e9190612d45565b60405180910390f35b61031f61106c565b005b610329611259565b005b61034560048036038101906103409190612cb5565b6112e1565b6040516103529190612d45565b60405180910390f35b610363611301565b6040516103709190613013565b60405180910390f35b610393600480360381019061038e91906129a8565b61132a565b005b6103af60048036038101906103aa91906129a8565b61207e565b6040516103be939291906130b6565b60405180910390f35b6103e160048036038101906103dc91906130f4565b612164565b6040516103ee9190612d45565b60405180910390f35b6103ff6123b7565b60405161040c9190612ce2565b60405180910390f35b61042f600480360381019061042a919061318b565b6123d1565b005b61044b60048036038101906104469190612cb5565b612596565b005b60076020528060005260406000206000915090508060000160009054906101000a900473ffffffffffffffffffffffffffffffffffffffff16908060010154908060020160009054906101000a900467ffffffffffffffff16908060020160089054906101000a900460ff16905084565b6000600660003373ffffffffffffffffffffffffffffffffffffffff1673ffffffffffffffffffffffffffffffffffffffff16815260200190815260200160002060009054906101000a900460ff1690508061054f576040517f08c379a000000000000000000000000000000000000000000000000000000000815260040161054690613250565b60405180910390fd5b600060046000600160149054906101000a900467ffffffffffffffff1667ffffffffffffffff1681526020019081526020016000209050848160000160006101000a81548167ffffffffffffffff021916908367ffffffffffffffff160217905550838160000160086101000a81548173ffffffffffffffffffffffffffffffffffffffff021916908373ffffffffffffffffffffffffffffffffffffffff1602179055508281600101908051906020019061060c9291906128bb565b506001601481819054906101000a900467ffffffffffffffff16809291906106339061329f565b91906101000a81548167ffffffffffffffff021916908367ffffffffffffffff160217905550505050505050565b6106696127c6565b73ffffffffffffffffffffffffffffffffffffffff16610687611301565b73ffffffffffffffffffffffffffffffffffffffff16146106dd576040517f08c379a00000000000000000000000000000000000000000000000000000000081526004016106d49061331c565b60405180910390fd5b60001515600660008373ffffffffffffffffffffffffffffffffffffffff1673ffffffffffffffffffffffffffffffffffffffff16815260200190815260200160002060009054906101000a900460ff16151514610770576040517f08c379a0000000000000000000000000000000000000000000000000000000008152600401610767906133ae565b60405180910390fd5b6005600081819054906101000a900467ffffffffffffffff16809291906107969061329f565b91906101000a81548167ffffffffffffffff021916908367ffffffffffffffff160217905550506001600660008373ffffffffffffffffffffffffffffffffffffffff1673ffffffffffffffffffffffffffffffffffffffff16815260200190815260200160002060006101000a81548160ff02191690831515021790555050565b600160149054906101000a900467ffffffffffffffff1681565b6000600660003373ffffffffffffffffffffffffffffffffffffffff1673ffffffffffffffffffffffffffffffffffffffff16815260200190815260200160002060009054906101000a900460ff169050806108c3576040517f08c379a00000000000000000000000000000000000000000000000000000000081526004016108ba90613250565b60405180910390fd5b60005b600160149054906101000a900467ffffffffffffffff1667ffffffffffffffff168111610a165760006004600083815260200190815260200160002090508367ffffffffffffffff168160000160009054906101000a900467ffffffffffffffff1667ffffffffffffffff161415610a02576001600360008360000160089054906101000a900473ffffffffffffffffffffffffffffffffffffffff1673ffffffffffffffffffffffffffffffffffffffff1673ffffffffffffffffffffffffffffffffffffffff16815260200190815260200160002060006101000a81548160ff0219169083151502179055506002600081819054906101000a900467ffffffffffffffff16809291906109da9061329f565b91906101000a81548167ffffffffffffffff021916908367ffffffffffffffff160217905550505b508080610a0e906133ce565b9150506108c6565b505050565b60085481565b6000806007600084815260200190815260200160002090508060020160009054906101000a900467ffffffffffffffff16915050919050565b6000610a9b6040518060400160405280600b81526020017f54686520706172616d3a200000000000000000000000000000000000000000008152508361268e565b610b09604051806060016040528060238152602001613acd60239139600360008573ffffffffffffffffffffffffffffffffffffffff1673ffffffffffffffffffffffffffffffffffffffff16815260200190815260200160002060009054906101000a900460ff1661272a565b600360008373ffffffffffffffffffffffffffffffffffffffff1673ffffffffffffffffffffffffffffffffffffffff16815260200190815260200160002060009054906101000a900460ff169050919050565b600060019050808214610ba5576040517f08c379a0000000000000000000000000000000000000000000000000000000008152600401610b9c90613489565b60405180910390fd5b610bc761a8cf73ab8483f64d9c6d1ecf9b849ae677dd3315835cb260016123d1565b610be961b2dd735b38da6a701c568545dcfcb03fcb875f56beddc460016123d1565b610c0c62010d0a735b38da6a701c568545dcfcb03fcb875f56beddc460016123d1565b610c2f62010d2f73ab8483f64d9c6d1ecf9b849ae677dd3315835cb260016123d1565b5050565b600073ffffffffffffffffffffffffffffffffffffffff16600160009054906101000a900473ffffffffffffffffffffffffffffffffffffffff1673ffffffffffffffffffffffffffffffffffffffff161415610cc5576040517f08c379a0000000000000000000000000000000000000000000000000000000008152600401610cbc9061351b565b60405180910390fd5b610cce33610a5a565b610d0d576040517f08c379a0000000000000000000000000000000000000000000000000000000008152600401610d04906135ad565b60405180910390fd5b610d4c6040518060400160405280601a81526020017f5b474d5d204465706c6f796572202d204d73672e53656e6465720000000000008152503361268e565b6000825111610d90576040517f08c379a0000000000000000000000000000000000000000000000000000000008152600401610d879061363f565b60405180910390fd5b8051825114610dd4576040517f08c379a0000000000000000000000000000000000000000000000000000000008152600401610dcb906136f7565b60405180910390fd5b60005b82518163ffffffff161015610f6a57600060076000858463ffffffff1681518110610e0557610e04613717565b5b6020026020010151815260200190815260200160002090506000838363ffffffff1681518110610e3857610e37613717565b5b602002602001015190508160030160008860ff1660ff16815260200190815260200160002060008760ff1660ff16815260200190815260200160002060405180608001604052808a63ffffffff1681526020018960ff1681526020018360ff1681526020018860ff168152509080600181540180825580915050600190039060005260206000200160009091909190915060008201518160000160006101000a81548163ffffffff021916908363ffffffff16021790555060208201518160000160046101000a81548160ff021916908360ff16021790555060408201518160000160056101000a81548160ff021916908360ff16021790555060608201518160000160066101000a81548160ff021916908360ff160217905550505050508080610f6290613746565b915050610dd7565b505050505050565b610f7a6127c6565b73ffffffffffffffffffffffffffffffffffffffff16610f98611301565b73ffffffffffffffffffffffffffffffffffffffff1614610fee576040517f08c379a0000000000000000000000000000000000000000000000000000000008152600401610fe59061331c565b60405180910390fd5b80600160006101000a81548173ffffffffffffffffffffffffffffffffffffffff021916908373ffffffffffffffffffffffffffffffffffffffff16021790555050565b600260009054906101000a900467ffffffffffffffff1681565b60066020528060005260406000206000915054906101000a900460ff1681565b61108973ab8483f64d9c6d1ecf9b849ae677dd3315835cb2610661565b6110a6734b20993bc481177ec7e8f571cecae8a9e22c02db610661565b6110c37378731d3ca6b7e34ac0f824c42a7cc18a495cabab610661565b6110e073f39fd6e51aad88f6f4ce6ab8827279cfffb92266610661565b6111366101a6735b38da6a701c568545dcfcb03fcb875f56beddc46040518060400160405280600681526020017f4b6f756c697300000000000000000000000000000000000000000000000000008152506104be565b61118b600d73ab8483f64d9c6d1ecf9b849ae677dd3315835cb26040518060400160405280600781526020017f4769616e6e6973000000000000000000000000000000000000000000000000008152506104be565b6111e16115c3734b20993bc481177ec7e8f571cecae8a9e22c02db6040518060400160405280600781526020017f58726973746f73000000000000000000000000000000000000000000000000008152506104be565b611237617a6973f39fd6e51aad88f6f4ce6ab8827279cfffb922666040518060400160405280600b81526020017f486172645f4861745f23310000000000000000000000000000000000000000008152506104be565b6112426101a6610832565b61124c600d610832565b611257617a69610832565b565b6112616127c6565b73ffffffffffffffffffffffffffffffffffffffff1661127f611301565b73ffffffffffffffffffffffffffffffffffffffff16146112d5576040517f08c379a00000000000000000000000000000000000000000000000000000000081526004016112cc9061331c565b60405180910390fd5b6112df60006127ce565b565b60036020528060005260406000206000915054906101000a900460ff1681565b60008060009054906101000a900473ffffffffffffffffffffffffffffffffffffffff16905090565b600060019050808214611372576040517f08c379a000000000000000000000000000000000000000000000000000000000815260040161136990613489565b60405180910390fd5b6000600467ffffffffffffffff81111561138f5761138e612b1b565b5b6040519080825280602002602001820160405280156113bd5781602001602082028036833780820191505090505b50905062010d0a816000815181106113d8576113d7613717565b5b60200260200101818152505062010d2f816001815181106113fc576113fb613717565b5b60200260200101818152505061a8cf8160028151811061141f5761141e613717565b5b60200260200101818152505061b2dd8160038151811061144257611441613717565b5b6020026020010181815250506000600467ffffffffffffffff81111561146b5761146a612b1b565b5b6040519080825280602002602001820160405280156114995781602001602082028036833780820191505090505b5090506005816000815181106114b2576114b1613717565b5b602002602001019060ff16908160ff16815250506005816001815181106114dc576114db613717565b5b602002602001019060ff16908160ff168152505060058160028151811061150657611505613717565b5b602002602001019060ff16908160ff16815250506005816003815181106115305761152f613717565b5b602002602001019060ff16908160ff16815250506115546103e96000808585610c33565b6000600267ffffffffffffffff81111561157157611570612b1b565b5b60405190808252806020026020018201604052801561159f5781602001602082028036833780820191505090505b50905062010d0a816000815181106115ba576115b9613717565b5b60200260200101818152505061a8cf816001815181106115dd576115dc613717565b5b6020026020010181815250506000600267ffffffffffffffff81111561160657611605612b1b565b5b6040519080825280602002602001820160405280156116345781602001602082028036833780820191505090505b50905060058160008151811061164d5761164c613717565b5b602002602001019060ff16908160ff168152505060058160018151811061167757611676613717565b5b602002602001019060ff16908160ff168152505061169b6107d16001808585610c33565b6000600367ffffffffffffffff8111156116b8576116b7612b1b565b5b6040519080825280602002602001820160405280156116e65781602001602082028036833780820191505090505b50905062010d0a8160008151811061170157611700613717565b5b60200260200101818152505062010d2f8160018151811061172557611724613717565b5b60200260200101818152505061a8cf8160028151811061174857611747613717565b5b6020026020010181815250506000600367ffffffffffffffff81111561177157611770612b1b565b5b60405190808252806020026020018201604052801561179f5781602001602082028036833780820191505090505b5090506005816000815181106117b8576117b7613717565b5b602002602001019060ff16908160ff16815250506005816001815181106117e2576117e1613717565b5b602002602001019060ff16908160ff168152505060058160028151811061180c5761180b613717565b5b602002602001019060ff16908160ff1681525050611831610bb9600260008585610c33565b6000600467ffffffffffffffff81111561184e5761184d612b1b565b5b60405190808252806020026020018201604052801561187c5781602001602082028036833780820191505090505b50905062010d0a8160008151811061189757611896613717565b5b60200260200101818152505062010d2f816001815181106118bb576118ba613717565b5b60200260200101818152505061a8cf816002815181106118de576118dd613717565b5b60200260200101818152505061b2dd8160038151811061190157611900613717565b5b6020026020010181815250506000600467ffffffffffffffff81111561192a57611929612b1b565b5b6040519080825280602002602001820160405280156119585781602001602082028036833780820191505090505b50905060058160038151811061197157611970613717565b5b602002602001019060ff16908160ff168152505060058160008151811061199b5761199a613717565b5b602002602001019060ff16908160ff16815250506005816001815181106119c5576119c4613717565b5b602002602001019060ff16908160ff16815250506005816002815181106119ef576119ee613717565b5b602002602001019060ff16908160ff1681525050611a14610bba600260008585610c33565b6000600267ffffffffffffffff811115611a3157611a30612b1b565b5b604051908082528060200260200182016040528015611a5f5781602001602082028036833780820191505090505b50905062010d0a81600081518110611a7a57611a79613717565b5b60200260200101818152505061a8cf81600181518110611a9d57611a9c613717565b5b6020026020010181815250506000600267ffffffffffffffff811115611ac657611ac5612b1b565b5b604051908082528060200260200182016040528015611af45781602001602082028036833780820191505090505b509050600581600081518110611b0d57611b0c613717565b5b602002602001019060ff16908160ff1681525050600581600181518110611b3757611b36613717565b5b602002602001019060ff16908160ff1681525050611b5c610fa1600360008585610c33565b6000600467ffffffffffffffff811115611b7957611b78612b1b565b5b604051908082528060200260200182016040528015611ba75781602001602082028036833780820191505090505b50905062010d0a81600081518110611bc257611bc1613717565b5b60200260200101818152505062010d2f81600181518110611be657611be5613717565b5b60200260200101818152505061a8cf81600281518110611c0957611c08613717565b5b60200260200101818152505061b2dd81600381518110611c2c57611c2b613717565b5b6020026020010181815250506000600467ffffffffffffffff811115611c5557611c54612b1b565b5b604051908082528060200260200182016040528015611c835781602001602082028036833780820191505090505b509050600581600081518110611c9c57611c9b613717565b5b602002602001019060ff16908160ff1681525050600581600181518110611cc657611cc5613717565b5b602002602001019060ff16908160ff1681525050600581600281518110611cf057611cef613717565b5b602002602001019060ff16908160ff1681525050600581600381518110611d1a57611d19613717565b5b602002602001019060ff16908160ff1681525050611d3f610fa2600360018585610c33565b6000600467ffffffffffffffff811115611d5c57611d5b612b1b565b5b604051908082528060200260200182016040528015611d8a5781602001602082028036833780820191505090505b50905062010d0a81600081518110611da557611da4613717565b5b60200260200101818152505062010d2f81600181518110611dc957611dc8613717565b5b60200260200101818152505061a8cf81600281518110611dec57611deb613717565b5b60200260200101818152505061b2dd81600381518110611e0f57611e0e613717565b5b6020026020010181815250506000600467ffffffffffffffff811115611e3857611e37612b1b565b5b604051908082528060200260200182016040528015611e665781602001602082028036833780820191505090505b509050600581600081518110611e7f57611e7e613717565b5b602002602001019060ff16908160ff1681525050600581600181518110611ea957611ea8613717565b5b602002602001019060ff16908160ff1681525050600581600281518110611ed357611ed2613717565b5b602002602001019060ff16908160ff1681525050600581600381518110611efd57611efc613717565b5b602002602001019060ff16908160ff1681525050611f22610fa3600360008585610c33565b6000600267ffffffffffffffff811115611f3f57611f3e612b1b565b5b604051908082528060200260200182016040528015611f6d5781602001602082028036833780820191505090505b50905062010d0a81600081518110611f8857611f87613717565b5b60200260200101818152505061a8cf81600181518110611fab57611faa613717565b5b6020026020010181815250506000600267ffffffffffffffff811115611fd457611fd3612b1b565b5b6040519080825280602002602001820160405280156120025781602001602082028036833780820191505090505b50905060058160008151811061201b5761201a613717565b5b602002602001019060ff16908160ff168152505060058160018151811061204557612044613717565b5b602002602001019060ff16908160ff168152505061206a610fa4600360018585610c33565b505050505050505050505050505050505050565b60046020528060005260406000206000915090508060000160009054906101000a900467ffffffffffffffff16908060000160089054906101000a900473ffffffffffffffffffffffffffffffffffffffff16908060010180546120e1906137a2565b80601f016020809104026020016040519081016040528092919081815260200182805461210d906137a2565b801561215a5780601f1061212f5761010080835404028352916020019161215a565b820191906000526020600020905b81548152906001019060200180831161213d57829003601f168201915b5050505050905083565b600085600073ffffffffffffffffffffffffffffffffffffffff166007600083815260200190815260200160002060000160009054906101000a900473ffffffffffffffffffffffffffffffffffffffff1673ffffffffffffffffffffffffffffffffffffffff16141561220d576040517f08c379a000000000000000000000000000000000000000000000000000000000815260040161220490613846565b60405180910390fd5b60006007600089815260200190815260200160002090508667ffffffffffffffff168160020160009054906101000a900467ffffffffffffffff1667ffffffffffffffff1614612292576040517f08c379a0000000000000000000000000000000000000000000000000000000008152600401612289906138d8565b60405180910390fd5b6000805b8560ff168160ff161015612360576000878260ff16815181106122bc576122bb613717565b5b602002602001015160ff1614156122e05781806122d8906138f8565b92505061234d565b868160ff16815181106122f6576122f5613717565b5b602002602001015160ff168360030160008a60ff1660ff16815260200190815260200160002060008360ff1660ff16815260200190815260200160002080549050141561234c578180612348906138f8565b9250505b5b8080612358906138f8565b915050612296565b508060ff168651146123a7576040517f08c379a000000000000000000000000000000000000000000000000000000000815260040161239e906139ba565b60405180910390fd5b6001935050505095945050505050565b600560009054906101000a900467ffffffffffffffff1681565b600073ffffffffffffffffffffffffffffffffffffffff16600160009054906101000a900473ffffffffffffffffffffffffffffffffffffffff1673ffffffffffffffffffffffffffffffffffffffff161415612463576040517f08c379a000000000000000000000000000000000000000000000000000000000815260040161245a9061351b565b60405180910390fd5b61246c33610a5a565b6124ab576040517f08c379a00000000000000000000000000000000000000000000000000000000081526004016124a2906135ad565b60405180910390fd5b6124ea6040518060400160405280601a81526020017f5b474d5d204465706c6f796572202d204d73672e53656e6465720000000000008152503361268e565b6000600760008581526020019081526020016000209050838160010181905550828160000160006101000a81548173ffffffffffffffffffffffffffffffffffffffff021916908373ffffffffffffffffffffffffffffffffffffffff160217905550818160020160006101000a81548167ffffffffffffffff021916908367ffffffffffffffff1602179055506008600081548092919061258b906133ce565b919050555050505050565b61259e6127c6565b73ffffffffffffffffffffffffffffffffffffffff166125bc611301565b73ffffffffffffffffffffffffffffffffffffffff1614612612576040517f08c379a00000000000000000000000000000000000000000000000000000000081526004016126099061331c565b60405180910390fd5b600073ffffffffffffffffffffffffffffffffffffffff168173ffffffffffffffffffffffffffffffffffffffff161415612682576040517f08c379a000000000000000000000000000000000000000000000000000000000815260040161267990613a4c565b60405180910390fd5b61268b816127ce565b50565b61272682826040516024016126a4929190613a6c565b6040516020818303038152906040527f319af333000000000000000000000000000000000000000000000000000000007bffffffffffffffffffffffffffffffffffffffffffffffffffffffff19166020820180517bffffffffffffffffffffffffffffffffffffffffffffffffffffffff8381831617835250505050612892565b5050565b6127c28282604051602401612740929190613a9c565b6040516020818303038152906040527fc3b55635000000000000000000000000000000000000000000000000000000007bffffffffffffffffffffffffffffffffffffffffffffffffffffffff19166020820180517bffffffffffffffffffffffffffffffffffffffffffffffffffffffff8381831617835250505050612892565b5050565b600033905090565b60008060009054906101000a900473ffffffffffffffffffffffffffffffffffffffff169050816000806101000a81548173ffffffffffffffffffffffffffffffffffffffff021916908373ffffffffffffffffffffffffffffffffffffffff1602179055508173ffffffffffffffffffffffffffffffffffffffff168173ffffffffffffffffffffffffffffffffffffffff167f8be0079c531659141344cd1fd0a4f28419497f9722a3daafe3b4186f6b6457e060405160405180910390a35050565b60008151905060006a636f6e736f6c652e6c6f679050602083016000808483855afa5050505050565b8280546128c7906137a2565b90600052602060002090601f0160209004810192826128e95760008555612930565b82601f1061290257805160ff1916838001178555612930565b82800160010185558215612930579182015b8281111561292f578251825591602001919060010190612914565b5b50905061293d9190612941565b5090565b5b8082111561295a576000816000905550600101612942565b5090565b6000604051905090565b600080fd5b600080fd5b6000819050919050565b61298581612972565b811461299057600080fd5b50565b6000813590506129a28161297c565b92915050565b6000602082840312156129be576129bd612968565b5b60006129cc84828501612993565b91505092915050565b600073ffffffffffffffffffffffffffffffffffffffff82169050919050565b6000612a00826129d5565b9050919050565b612a10816129f5565b82525050565b612a1f81612972565b82525050565b600067ffffffffffffffff82169050919050565b612a4281612a25565b82525050565b60008115159050919050565b612a5d81612a48565b82525050565b6000608082019050612a786000830187612a07565b612a856020830186612a16565b612a926040830185612a39565b612a9f6060830184612a54565b95945050505050565b612ab181612a25565b8114612abc57600080fd5b50565b600081359050612ace81612aa8565b92915050565b612add816129f5565b8114612ae857600080fd5b50565b600081359050612afa81612ad4565b92915050565b600080fd5b600080fd5b6000601f19601f8301169050919050565b7f4e487b7100000000000000000000000000000000000000000000000000000000600052604160045260246000fd5b612b5382612b0a565b810181811067ffffffffffffffff82111715612b7257612b71612b1b565b5b80604052505050565b6000612b8561295e565b9050612b918282612b4a565b919050565b600067ffffffffffffffff821115612bb157612bb0612b1b565b5b612bba82612b0a565b9050602081019050919050565b82818337600083830152505050565b6000612be9612be484612b96565b612b7b565b905082815260208101848484011115612c0557612c04612b05565b5b612c10848285612bc7565b509392505050565b600082601f830112612c2d57612c2c612b00565b5b8135612c3d848260208601612bd6565b91505092915050565b600080600060608486031215612c5f57612c5e612968565b5b6000612c6d86828701612abf565b9350506020612c7e86828701612aeb565b925050604084013567ffffffffffffffff811115612c9f57612c9e61296d565b5b612cab86828701612c18565b9150509250925092565b600060208284031215612ccb57612cca612968565b5b6000612cd984828501612aeb565b91505092915050565b6000602082019050612cf76000830184612a39565b92915050565b600060208284031215612d1357612d12612968565b5b6000612d2184828501612abf565b91505092915050565b6000602082019050612d3f6000830184612a16565b92915050565b6000602082019050612d5a6000830184612a54565b92915050565b600063ffffffff82169050919050565b612d7981612d60565b8114612d8457600080fd5b50565b600081359050612d9681612d70565b92915050565b600060ff82169050919050565b612db281612d9c565b8114612dbd57600080fd5b50565b600081359050612dcf81612da9565b92915050565b600067ffffffffffffffff821115612df057612def612b1b565b5b602082029050602081019050919050565b600080fd5b6000612e19612e1484612dd5565b612b7b565b90508083825260208201905060208402830185811115612e3c57612e3b612e01565b5b835b81811015612e655780612e518882612993565b845260208401935050602081019050612e3e565b5050509392505050565b600082601f830112612e8457612e83612b00565b5b8135612e94848260208601612e06565b91505092915050565b600067ffffffffffffffff821115612eb857612eb7612b1b565b5b602082029050602081019050919050565b6000612edc612ed784612e9d565b612b7b565b90508083825260208201905060208402830185811115612eff57612efe612e01565b5b835b81811015612f285780612f148882612dc0565b845260208401935050602081019050612f01565b5050509392505050565b600082601f830112612f4757612f46612b00565b5b8135612f57848260208601612ec9565b91505092915050565b600080600080600060a08688031215612f7c57612f7b612968565b5b6000612f8a88828901612d87565b9550506020612f9b88828901612dc0565b9450506040612fac88828901612dc0565b935050606086013567ffffffffffffffff811115612fcd57612fcc61296d565b5b612fd988828901612e6f565b925050608086013567ffffffffffffffff811115612ffa57612ff961296d565b5b61300688828901612f32565b9150509295509295909350565b60006020820190506130286000830184612a07565b92915050565b600081519050919050565b600082825260208201905092915050565b60005b8381101561306857808201518184015260208101905061304d565b83811115613077576000848401525b50505050565b60006130888261302e565b6130928185613039565b93506130a281856020860161304a565b6130ab81612b0a565b840191505092915050565b60006060820190506130cb6000830186612a39565b6130d86020830185612a07565b81810360408301526130ea818461307d565b9050949350505050565b600080600080600060a086880312156131105761310f612968565b5b600061311e88828901612993565b955050602061312f88828901612abf565b945050604061314088828901612dc0565b935050606086013567ffffffffffffffff8111156131615761316061296d565b5b61316d88828901612f32565b925050608061317e88828901612dc0565b9150509295509295909350565b6000806000606084860312156131a4576131a3612968565b5b60006131b286828701612993565b93505060206131c386828701612aeb565b92505060406131d486828701612abf565b9150509250925092565b7f5365637265746572792e736f6c3a204f6e6c792061204d616e6167657220636160008201527f6e20706572666f726d207468697320616374696f6e2100000000000000000000602082015250565b600061323a603683613039565b9150613245826131de565b604082019050919050565b600060208201905081810360008301526132698161322d565b9050919050565b7f4e487b7100000000000000000000000000000000000000000000000000000000600052601160045260246000fd5b60006132aa82612a25565b915067ffffffffffffffff8214156132c5576132c4613270565b5b600182019050919050565b7f4f776e61626c653a2063616c6c6572206973206e6f7420746865206f776e6572600082015250565b6000613306602083613039565b9150613311826132d0565b602082019050919050565b60006020820190508181036000830152613335816132f9565b9050919050565b7f5365637265746572792e736f6c3a2054686973206164647265737320616c726560008201527f61647920686173206d616e61676572206c6576656c2061636365737321000000602082015250565b6000613398603d83613039565b91506133a38261333c565b604082019050919050565b600060208201905081810360008301526133c78161338b565b9050919050565b60006133d982612972565b91507fffffffffffffffffffffffffffffffffffffffffffffffffffffffffffffffff82141561340c5761340b613270565b5b600182019050919050565b7f4772616465734d616e616765722e736f6c202d20576f726e672050617373776f60008201527f72642c20506c656173652054727920416761696e000000000000000000000000602082015250565b6000613473603483613039565b915061347e82613417565b604082019050919050565b600060208201905081810360008301526134a281613466565b9050919050565b7f6d6f645f6f6e6c7950726f663a2053656372657465727920436f6e747261637460008201527f204164647265737320686173206e6f74206265656e2073657420796574210000602082015250565b6000613505603e83613039565b9150613510826134a9565b604082019050919050565b60006020820190508181036000830152613534816134f8565b9050919050565b7f6d6f645f6f6e6c7950726f663a2043616c6c6572206973206e6f74206120707260008201527f6f666573736f7221000000000000000000000000000000000000000000000000602082015250565b6000613597602883613039565b91506135a28261353b565b604082019050919050565b600060208201905081810360008301526135c68161358a565b9050919050565b7f66726f6d46756e5f75706c6f61644772616465733a204e6f204164647265737360008201527f65732068617665206265656e20696e7075746564210000000000000000000000602082015250565b6000613629603583613039565b9150613634826135cd565b604082019050919050565b600060208201905081810360008301526136588161361c565b9050919050565b7f66726f6d46756e5f75706c6f61644772616465733a205374756465627420494460008201527f277320616e642074686520616d6f756e74206f6620677261646573206172652060208201527f6e6f7420657175616c2100000000000000000000000000000000000000000000604082015250565b60006136e1604a83613039565b91506136ec8261365f565b606082019050919050565b60006020820190508181036000830152613710816136d4565b9050919050565b7f4e487b7100000000000000000000000000000000000000000000000000000000600052603260045260246000fd5b600061375182612d60565b915063ffffffff82141561376857613767613270565b5b600182019050919050565b7f4e487b7100000000000000000000000000000000000000000000000000000000600052602260045260246000fd5b600060028204905060018216806137ba57607f821691505b602082108114156137ce576137cd613773565b5b50919050565b7f4772616465734d616e616765722e736f6c3a20596f7520617265206e6f74206160008201527f2073747564656e74210000000000000000000000000000000000000000000000602082015250565b6000613830602983613039565b915061383b826137d4565b604082019050919050565b6000602082019050818103600083015261385f81613823565b9050919050565b7f4772616465734d616e616765722e736f6c3a2053747564656e74206973204e4f60008201527f54207265676973746572656420746f2074686973205053000000000000000000602082015250565b60006138c2603783613039565b91506138cd82613866565b604082019050919050565b600060208201905081810360008301526138f1816138b5565b9050919050565b600061390382612d9c565b915060ff82141561391757613916613270565b5b600182019050919050565b7f4772616465734d616e616765722e736f6c3a20596f752068617665204e4f542060008201527f6d65742074686520726571756972656d656e747320746f20636f6d706c65746560208201527f20746869732053656d6573746572000000000000000000000000000000000000604082015250565b60006139a4604e83613039565b91506139af82613922565b606082019050919050565b600060208201905081810360008301526139d381613997565b9050919050565b7f4f776e61626c653a206e6577206f776e657220697320746865207a65726f206160008201527f6464726573730000000000000000000000000000000000000000000000000000602082015250565b6000613a36602683613039565b9150613a41826139da565b604082019050919050565b60006020820190508181036000830152613a6581613a29565b9050919050565b60006040820190508181036000830152613a86818561307d565b9050613a956020830184612a07565b9392505050565b60006040820190508181036000830152613ab6818561307d565b9050613ac56020830184612a54565b939250505056fe497320616e20617070726f7665642050726f666573736f723f2020416e737765723a20a26469706673582212207da7b9dadf77da8da9a8f5709a4a375d5098a2042b5ba1334b7211393c80510264736f6c634300080a0033497320616e20617070726f7665642050726f666573736f723f2020416e737765723a20",
  "linkReferences": {},
  "deployedLinkReferences": {}
}