{
  "_format": "hh-sol-artifact-1",
  "contractName": "Secretery",
  "sourceName": "contracts/Secretery.sol",
  "abi": [
    {
      "inputs": [],
      "stateMutability": "nonpayable",
      "type": "constructor"
    },
    {
      "anonymous": false,
      "inputs": [
        {
          "indexed": true,
          "internalType": "address",
          "name": "previousOwner",
          "type": "address"
        },
        {
          "indexed": true,
          "internalType": "address",
          "name": "newOwner",
          "type": "address"
        }
      ],
      "name": "OwnershipTransferred",
      "type": "event"
    },
    {
      "inputs": [
        {
          "internalType": "address",
          "name": "_managerAddress",
          "type": "address"
        }
      ],
      "name": "appointManager",
      "outputs": [],
      "stateMutability": "nonpayable",
      "type": "function"
    },
    {
      "inputs": [
        {
          "internalType": "uint64",
          "name": "_profID",
          "type": "uint64"
        }
      ],
      "name": "approveProfessor",
      "outputs": [],
      "stateMutability": "nonpayable",
      "type": "function"
    },
    {
      "inputs": [
        {
          "internalType": "address",
          "name": "",
          "type": "address"
        }
      ],
      "name": "approvedManagers",
      "outputs": [
        {
          "internalType": "bool",
          "name": "",
          "type": "bool"
        }
      ],
      "stateMutability": "view",
      "type": "function"
    },
    {
      "inputs": [
        {
          "internalType": "address",
          "name": "",
          "type": "address"
        }
      ],
      "name": "approvedProfessors",
      "outputs": [
        {
          "internalType": "bool",
          "name": "",
          "type": "bool"
        }
      ],
      "stateMutability": "view",
      "type": "function"
    },
    {
      "inputs": [],
      "name": "hardCodeForTesting",
      "outputs": [],
      "stateMutability": "nonpayable",
      "type": "function"
    },
    {
      "inputs": [
        {
          "internalType": "address",
          "name": "_caller",
          "type": "address"
        }
      ],
      "name": "isApprovedProf",
      "outputs": [
        {
          "internalType": "bool",
          "name": "",
          "type": "bool"
        }
      ],
      "stateMutability": "view",
      "type": "function"
    },
    {
      "inputs": [],
      "name": "owner",
      "outputs": [
        {
          "internalType": "address",
          "name": "",
          "type": "address"
        }
      ],
      "stateMutability": "view",
      "type": "function"
    },
    {
      "inputs": [
        {
          "internalType": "uint256",
          "name": "",
          "type": "uint256"
        }
      ],
      "name": "professors",
      "outputs": [
        {
          "internalType": "uint64",
          "name": "id",
          "type": "uint64"
        },
        {
          "internalType": "address",
          "name": "addr",
          "type": "address"
        },
        {
          "internalType": "string",
          "name": "name",
          "type": "string"
        }
      ],
      "stateMutability": "view",
      "type": "function"
    },
    {
      "inputs": [
        {
          "internalType": "uint64",
          "name": "_profID",
          "type": "uint64"
        },
        {
          "internalType": "address",
          "name": "_profAddress",
          "type": "address"
        },
        {
          "internalType": "string",
          "name": "_name",
          "type": "string"
        }
      ],
      "name": "registerProfessor",
      "outputs": [],
      "stateMutability": "nonpayable",
      "type": "function"
    },
    {
      "inputs": [],
      "name": "renounceOwnership",
      "outputs": [],
      "stateMutability": "nonpayable",
      "type": "function"
    },
    {
      "inputs": [],
      "name": "totalApprovedProfessors",
      "outputs": [
        {
          "internalType": "uint64",
          "name": "",
          "type": "uint64"
        }
      ],
      "stateMutability": "view",
      "type": "function"
    },
    {
      "inputs": [],
      "name": "totalManagers",
      "outputs": [
        {
          "internalType": "uint64",
          "name": "",
          "type": "uint64"
        }
      ],
      "stateMutability": "view",
      "type": "function"
    },
    {
      "inputs": [],
      "name": "totalProfessors",
      "outputs": [
        {
          "internalType": "uint64",
          "name": "",
          "type": "uint64"
        }
      ],
      "stateMutability": "view",
      "type": "function"
    },
    {
      "inputs": [
        {
          "internalType": "address",
          "name": "newOwner",
          "type": "address"
        }
      ],
      "name": "transferOwnership",
      "outputs": [],
      "stateMutability": "nonpayable",
      "type": "function"
    }
  ],
  "bytecode": "0x60806040523480156200001157600080fd5b5062000032620000266200008960201b60201c565b6200009160201b60201c565b620000426200015560201b60201c565b30600160006101000a81548173ffffffffffffffffffffffffffffffffffffffff021916908373ffffffffffffffffffffffffffffffffffffffff16021790555062000cc8565b600033905090565b60008060009054906101000a900473ffffffffffffffffffffffffffffffffffffffff169050816000806101000a81548173ffffffffffffffffffffffffffffffffffffffff021916908373ffffffffffffffffffffffffffffffffffffffff1602179055508173ffffffffffffffffffffffffffffffffffffffff168173ffffffffffffffffffffffffffffffffffffffff167f8be0079c531659141344cd1fd0a4f28419497f9722a3daafe3b4186f6b6457e060405160405180910390a35050565b6200017a73ab8483f64d9c6d1ecf9b849ae677dd3315835cb26200039a60201b60201c565b6200019f734b20993bc481177ec7e8f571cecae8a9e22c02db6200039a60201b60201c565b620001c47378731d3ca6b7e34ac0f824c42a7cc18a495cabab6200039a60201b60201c565b620001e973f39fd6e51aad88f6f4ce6ab8827279cfffb922666200039a60201b60201c565b620002476101a6735b38da6a701c568545dcfcb03fcb875f56beddc46040518060400160405280600681526020017f4b6f756c697300000000000000000000000000000000000000000000000000008152506200056960201b60201c565b620002a4600d73ab8483f64d9c6d1ecf9b849ae677dd3315835cb26040518060400160405280600781526020017f4769616e6e6973000000000000000000000000000000000000000000000000008152506200056960201b60201c565b620003026115c3734b20993bc481177ec7e8f571cecae8a9e22c02db6040518060400160405280600781526020017f58726973746f73000000000000000000000000000000000000000000000000008152506200056960201b60201c565b62000360617a6973f39fd6e51aad88f6f4ce6ab8827279cfffb922666040518060400160405280600b81526020017f486172645f4861745f23310000000000000000000000000000000000000000008152506200056960201b60201c565b620003736101a66200071360201b60201c565b62000385600d6200071360201b60201c565b62000398617a696200071360201b60201c565b565b620003aa6200008960201b60201c565b73ffffffffffffffffffffffffffffffffffffffff16620003d06200090660201b60201c565b73ffffffffffffffffffffffffffffffffffffffff161462000429576040517f08c379a0000000000000000000000000000000000000000000000000000000008152600401620004209062000a40565b60405180910390fd5b60001515600660008373ffffffffffffffffffffffffffffffffffffffff1673ffffffffffffffffffffffffffffffffffffffff16815260200190815260200160002060009054906101000a900460ff16151514620004bf576040517f08c379a0000000000000000000000000000000000000000000000000000000008152600401620004b69062000ad8565b60405180910390fd5b6005600081819054906101000a900467ffffffffffffffff1680929190620004e79062000b3d565b91906101000a81548167ffffffffffffffff021916908367ffffffffffffffff160217905550506001600660008373ffffffffffffffffffffffffffffffffffffffff1673ffffffffffffffffffffffffffffffffffffffff16815260200190815260200160002060006101000a81548160ff02191690831515021790555050565b6000600660003373ffffffffffffffffffffffffffffffffffffffff1673ffffffffffffffffffffffffffffffffffffffff16815260200190815260200160002060009054906101000a900460ff16905080620005fd576040517f08c379a0000000000000000000000000000000000000000000000000000000008152600401620005f49062000be9565b60405180910390fd5b600060046000600160149054906101000a900467ffffffffffffffff1667ffffffffffffffff1681526020019081526020016000209050848160000160006101000a81548167ffffffffffffffff021916908367ffffffffffffffff160217905550838160000160086101000a81548173ffffffffffffffffffffffffffffffffffffffff021916908373ffffffffffffffffffffffffffffffffffffffff16021790555082816001019080519060200190620006bc9291906200092f565b506001601481819054906101000a900467ffffffffffffffff1680929190620006e59062000b3d565b91906101000a81548167ffffffffffffffff021916908367ffffffffffffffff160217905550505050505050565b6000600660003373ffffffffffffffffffffffffffffffffffffffff1673ffffffffffffffffffffffffffffffffffffffff16815260200190815260200160002060009054906101000a900460ff16905080620007a7576040517f08c379a00000000000000000000000000000000000000000000000000000000081526004016200079e9062000be9565b60405180910390fd5b60005b600160149054906101000a900467ffffffffffffffff1667ffffffffffffffff168111620009015760006004600083815260200190815260200160002090508367ffffffffffffffff168160000160009054906101000a900467ffffffffffffffff1667ffffffffffffffff161415620008ea576001600360008360000160089054906101000a900473ffffffffffffffffffffffffffffffffffffffff1673ffffffffffffffffffffffffffffffffffffffff1673ffffffffffffffffffffffffffffffffffffffff16815260200190815260200160002060006101000a81548160ff0219169083151502179055506002600081819054906101000a900467ffffffffffffffff1680929190620008c29062000b3d565b91906101000a81548167ffffffffffffffff021916908367ffffffffffffffff160217905550505b508080620008f89062000c15565b915050620007aa565b505050565b60008060009054906101000a900473ffffffffffffffffffffffffffffffffffffffff16905090565b8280546200093d9062000c92565b90600052602060002090601f016020900481019282620009615760008555620009ad565b82601f106200097c57805160ff1916838001178555620009ad565b82800160010185558215620009ad579182015b82811115620009ac5782518255916020019190600101906200098f565b5b509050620009bc9190620009c0565b5090565b5b80821115620009db576000816000905550600101620009c1565b5090565b600082825260208201905092915050565b7f4f776e61626c653a2063616c6c6572206973206e6f7420746865206f776e6572600082015250565b600062000a28602083620009df565b915062000a3582620009f0565b602082019050919050565b6000602082019050818103600083015262000a5b8162000a19565b9050919050565b7f5365637265746572792e736f6c3a2054686973206164647265737320616c726560008201527f61647920686173206d616e61676572206c6576656c2061636365737321000000602082015250565b600062000ac0603d83620009df565b915062000acd8262000a62565b604082019050919050565b6000602082019050818103600083015262000af38162000ab1565b9050919050565b7f4e487b7100000000000000000000000000000000000000000000000000000000600052601160045260246000fd5b600067ffffffffffffffff82169050919050565b600062000b4a8262000b29565b915067ffffffffffffffff82141562000b685762000b6762000afa565b5b600182019050919050565b7f5365637265746572792e736f6c3a204f6e6c792061204d616e6167657220636160008201527f6e20706572666f726d207468697320616374696f6e2100000000000000000000602082015250565b600062000bd1603683620009df565b915062000bde8262000b73565b604082019050919050565b6000602082019050818103600083015262000c048162000bc2565b9050919050565b6000819050919050565b600062000c228262000c0b565b91507fffffffffffffffffffffffffffffffffffffffffffffffffffffffffffffffff82141562000c585762000c5762000afa565b5b600182019050919050565b7f4e487b7100000000000000000000000000000000000000000000000000000000600052602260045260246000fd5b6000600282049050600182168062000cab57607f821691505b6020821081141562000cc25762000cc162000c63565b5b50919050565b6119268062000cd86000396000f3fe608060405234801561001057600080fd5b50600436106100ea5760003560e01c80636ab7886c1161008c5780638da5cb5b116100665780638da5cb5b14610223578063b8f2b5e714610241578063d5eb7cf414610273578063f2fde38b14610291576100ea565b80636ab7886c146101df578063715018a6146101e957806387166253146101f3576100ea565b806313915616116100c85780631391561614610145578063343ba85d1461016157806358a71d251461019157806363c0f133146101af576100ea565b8063090f5a25146100ef57806312b718e91461010b578063136d259314610127575b600080fd5b610109600480360381019061010491906112c5565b6102ad565b005b61012560048036038101906101209190611334565b610450565b005b61012f610607565b60405161013c9190611370565b60405180910390f35b61015f600480360381019061015a919061138b565b610621565b005b61017b60048036038101906101769190611334565b61080a565b60405161018891906113d3565b60405180910390f35b61019961090d565b6040516101a69190611370565b60405180910390f35b6101c960048036038101906101c49190611334565b610927565b6040516101d691906113d3565b60405180910390f35b6101e7610947565b005b6101f1610b34565b005b61020d60048036038101906102089190611334565b610bbc565b60405161021a91906113d3565b60405180910390f35b61022b610bdc565b60405161023891906113fd565b60405180910390f35b61025b6004803603810190610256919061144e565b610c05565b60405161026a93929190611503565b60405180910390f35b61027b610ceb565b6040516102889190611370565b60405180910390f35b6102ab60048036038101906102a69190611334565b610d05565b005b6000600660003373ffffffffffffffffffffffffffffffffffffffff1673ffffffffffffffffffffffffffffffffffffffff16815260200190815260200160002060009054906101000a900460ff1690508061033e576040517f08c379a0000000000000000000000000000000000000000000000000000000008152600401610335906115b3565b60405180910390fd5b600060046000600160149054906101000a900467ffffffffffffffff1667ffffffffffffffff1681526020019081526020016000209050848160000160006101000a81548167ffffffffffffffff021916908367ffffffffffffffff160217905550838160000160086101000a81548173ffffffffffffffffffffffffffffffffffffffff021916908373ffffffffffffffffffffffffffffffffffffffff160217905550828160010190805190602001906103fb92919061102a565b506001601481819054906101000a900467ffffffffffffffff168092919061042290611602565b91906101000a81548167ffffffffffffffff021916908367ffffffffffffffff160217905550505050505050565b610458610dfd565b73ffffffffffffffffffffffffffffffffffffffff16610476610bdc565b73ffffffffffffffffffffffffffffffffffffffff16146104cc576040517f08c379a00000000000000000000000000000000000000000000000000000000081526004016104c39061167f565b60405180910390fd5b60001515600660008373ffffffffffffffffffffffffffffffffffffffff1673ffffffffffffffffffffffffffffffffffffffff16815260200190815260200160002060009054906101000a900460ff1615151461055f576040517f08c379a000000000000000000000000000000000000000000000000000000000815260040161055690611711565b60405180910390fd5b6005600081819054906101000a900467ffffffffffffffff168092919061058590611602565b91906101000a81548167ffffffffffffffff021916908367ffffffffffffffff160217905550506001600660008373ffffffffffffffffffffffffffffffffffffffff1673ffffffffffffffffffffffffffffffffffffffff16815260200190815260200160002060006101000a81548160ff02191690831515021790555050565b600160149054906101000a900467ffffffffffffffff1681565b6000600660003373ffffffffffffffffffffffffffffffffffffffff1673ffffffffffffffffffffffffffffffffffffffff16815260200190815260200160002060009054906101000a900460ff169050806106b2576040517f08c379a00000000000000000000000000000000000000000000000000000000081526004016106a9906115b3565b60405180910390fd5b60005b600160149054906101000a900467ffffffffffffffff1667ffffffffffffffff1681116108055760006004600083815260200190815260200160002090508367ffffffffffffffff168160000160009054906101000a900467ffffffffffffffff1667ffffffffffffffff1614156107f1576001600360008360000160089054906101000a900473ffffffffffffffffffffffffffffffffffffffff1673ffffffffffffffffffffffffffffffffffffffff1673ffffffffffffffffffffffffffffffffffffffff16815260200190815260200160002060006101000a81548160ff0219169083151502179055506002600081819054906101000a900467ffffffffffffffff16809291906107c990611602565b91906101000a81548167ffffffffffffffff021916908367ffffffffffffffff160217905550505b5080806107fd90611731565b9150506106b5565b505050565b600061084b6040518060400160405280600b81526020017f54686520706172616d3a2000000000000000000000000000000000000000000081525083610e05565b6108b96040518060600160405280602381526020016118ce60239139600360008573ffffffffffffffffffffffffffffffffffffffff1673ffffffffffffffffffffffffffffffffffffffff16815260200190815260200160002060009054906101000a900460ff16610ea1565b600360008373ffffffffffffffffffffffffffffffffffffffff1673ffffffffffffffffffffffffffffffffffffffff16815260200190815260200160002060009054906101000a900460ff169050919050565b600260009054906101000a900467ffffffffffffffff1681565b60066020528060005260406000206000915054906101000a900460ff1681565b61096473ab8483f64d9c6d1ecf9b849ae677dd3315835cb2610450565b610981734b20993bc481177ec7e8f571cecae8a9e22c02db610450565b61099e7378731d3ca6b7e34ac0f824c42a7cc18a495cabab610450565b6109bb73f39fd6e51aad88f6f4ce6ab8827279cfffb92266610450565b610a116101a6735b38da6a701c568545dcfcb03fcb875f56beddc46040518060400160405280600681526020017f4b6f756c697300000000000000000000000000000000000000000000000000008152506102ad565b610a66600d73ab8483f64d9c6d1ecf9b849ae677dd3315835cb26040518060400160405280600781526020017f4769616e6e6973000000000000000000000000000000000000000000000000008152506102ad565b610abc6115c3734b20993bc481177ec7e8f571cecae8a9e22c02db6040518060400160405280600781526020017f58726973746f73000000000000000000000000000000000000000000000000008152506102ad565b610b12617a6973f39fd6e51aad88f6f4ce6ab8827279cfffb922666040518060400160405280600b81526020017f486172645f4861745f23310000000000000000000000000000000000000000008152506102ad565b610b1d6101a6610621565b610b27600d610621565b610b32617a69610621565b565b610b3c610dfd565b73ffffffffffffffffffffffffffffffffffffffff16610b5a610bdc565b73ffffffffffffffffffffffffffffffffffffffff1614610bb0576040517f08c379a0000000000000000000000000000000000000000000000000000000008152600401610ba79061167f565b60405180910390fd5b610bba6000610f3d565b565b60036020528060005260406000206000915054906101000a900460ff1681565b60008060009054906101000a900473ffffffffffffffffffffffffffffffffffffffff16905090565b60046020528060005260406000206000915090508060000160009054906101000a900467ffffffffffffffff16908060000160089054906101000a900473ffffffffffffffffffffffffffffffffffffffff1690806001018054610c68906117a9565b80601f0160208091040260200160405190810160405280929190818152602001828054610c94906117a9565b8015610ce15780601f10610cb657610100808354040283529160200191610ce1565b820191906000526020600020905b815481529060010190602001808311610cc457829003601f168201915b5050505050905083565b600560009054906101000a900467ffffffffffffffff1681565b610d0d610dfd565b73ffffffffffffffffffffffffffffffffffffffff16610d2b610bdc565b73ffffffffffffffffffffffffffffffffffffffff1614610d81576040517f08c379a0000000000000000000000000000000000000000000000000000000008152600401610d789061167f565b60405180910390fd5b600073ffffffffffffffffffffffffffffffffffffffff168173ffffffffffffffffffffffffffffffffffffffff161415610df1576040517f08c379a0000000000000000000000000000000000000000000000000000000008152600401610de89061184d565b60405180910390fd5b610dfa81610f3d565b50565b600033905090565b610e9d8282604051602401610e1b92919061186d565b6040516020818303038152906040527f319af333000000000000000000000000000000000000000000000000000000007bffffffffffffffffffffffffffffffffffffffffffffffffffffffff19166020820180517bffffffffffffffffffffffffffffffffffffffffffffffffffffffff8381831617835250505050611001565b5050565b610f398282604051602401610eb792919061189d565b6040516020818303038152906040527fc3b55635000000000000000000000000000000000000000000000000000000007bffffffffffffffffffffffffffffffffffffffffffffffffffffffff19166020820180517bffffffffffffffffffffffffffffffffffffffffffffffffffffffff8381831617835250505050611001565b5050565b60008060009054906101000a900473ffffffffffffffffffffffffffffffffffffffff169050816000806101000a81548173ffffffffffffffffffffffffffffffffffffffff021916908373ffffffffffffffffffffffffffffffffffffffff1602179055508173ffffffffffffffffffffffffffffffffffffffff168173ffffffffffffffffffffffffffffffffffffffff167f8be0079c531659141344cd1fd0a4f28419497f9722a3daafe3b4186f6b6457e060405160405180910390a35050565b60008151905060006a636f6e736f6c652e6c6f679050602083016000808483855afa5050505050565b828054611036906117a9565b90600052602060002090601f016020900481019282611058576000855561109f565b82601f1061107157805160ff191683800117855561109f565b8280016001018555821561109f579182015b8281111561109e578251825591602001919060010190611083565b5b5090506110ac91906110b0565b5090565b5b808211156110c95760008160009055506001016110b1565b5090565b6000604051905090565b600080fd5b600080fd5b600067ffffffffffffffff82169050919050565b6110fe816110e1565b811461110957600080fd5b50565b60008135905061111b816110f5565b92915050565b600073ffffffffffffffffffffffffffffffffffffffff82169050919050565b600061114c82611121565b9050919050565b61115c81611141565b811461116757600080fd5b50565b60008135905061117981611153565b92915050565b600080fd5b600080fd5b6000601f19601f8301169050919050565b7f4e487b7100000000000000000000000000000000000000000000000000000000600052604160045260246000fd5b6111d282611189565b810181811067ffffffffffffffff821117156111f1576111f061119a565b5b80604052505050565b60006112046110cd565b905061121082826111c9565b919050565b600067ffffffffffffffff8211156112305761122f61119a565b5b61123982611189565b9050602081019050919050565b82818337600083830152505050565b600061126861126384611215565b6111fa565b90508281526020810184848401111561128457611283611184565b5b61128f848285611246565b509392505050565b600082601f8301126112ac576112ab61117f565b5b81356112bc848260208601611255565b91505092915050565b6000806000606084860312156112de576112dd6110d7565b5b60006112ec8682870161110c565b93505060206112fd8682870161116a565b925050604084013567ffffffffffffffff81111561131e5761131d6110dc565b5b61132a86828701611297565b9150509250925092565b60006020828403121561134a576113496110d7565b5b60006113588482850161116a565b91505092915050565b61136a816110e1565b82525050565b60006020820190506113856000830184611361565b92915050565b6000602082840312156113a1576113a06110d7565b5b60006113af8482850161110c565b91505092915050565b60008115159050919050565b6113cd816113b8565b82525050565b60006020820190506113e860008301846113c4565b92915050565b6113f781611141565b82525050565b600060208201905061141260008301846113ee565b92915050565b6000819050919050565b61142b81611418565b811461143657600080fd5b50565b60008135905061144881611422565b92915050565b600060208284031215611464576114636110d7565b5b600061147284828501611439565b91505092915050565b600081519050919050565b600082825260208201905092915050565b60005b838110156114b557808201518184015260208101905061149a565b838111156114c4576000848401525b50505050565b60006114d58261147b565b6114df8185611486565b93506114ef818560208601611497565b6114f881611189565b840191505092915050565b60006060820190506115186000830186611361565b61152560208301856113ee565b818103604083015261153781846114ca565b9050949350505050565b7f5365637265746572792e736f6c3a204f6e6c792061204d616e6167657220636160008201527f6e20706572666f726d207468697320616374696f6e2100000000000000000000602082015250565b600061159d603683611486565b91506115a882611541565b604082019050919050565b600060208201905081810360008301526115cc81611590565b9050919050565b7f4e487b7100000000000000000000000000000000000000000000000000000000600052601160045260246000fd5b600061160d826110e1565b915067ffffffffffffffff821415611628576116276115d3565b5b600182019050919050565b7f4f776e61626c653a2063616c6c6572206973206e6f7420746865206f776e6572600082015250565b6000611669602083611486565b915061167482611633565b602082019050919050565b600060208201905081810360008301526116988161165c565b9050919050565b7f5365637265746572792e736f6c3a2054686973206164647265737320616c726560008201527f61647920686173206d616e61676572206c6576656c2061636365737321000000602082015250565b60006116fb603d83611486565b91506117068261169f565b604082019050919050565b6000602082019050818103600083015261172a816116ee565b9050919050565b600061173c82611418565b91507fffffffffffffffffffffffffffffffffffffffffffffffffffffffffffffffff82141561176f5761176e6115d3565b5b600182019050919050565b7f4e487b7100000000000000000000000000000000000000000000000000000000600052602260045260246000fd5b600060028204905060018216806117c157607f821691505b602082108114156117d5576117d461177a565b5b50919050565b7f4f776e61626c653a206e6577206f776e657220697320746865207a65726f206160008201527f6464726573730000000000000000000000000000000000000000000000000000602082015250565b6000611837602683611486565b9150611842826117db565b604082019050919050565b600060208201905081810360008301526118668161182a565b9050919050565b6000604082019050818103600083015261188781856114ca565b905061189660208301846113ee565b9392505050565b600060408201905081810360008301526118b781856114ca565b90506118c660208301846113c4565b939250505056fe497320616e20617070726f7665642050726f666573736f723f2020416e737765723a20a26469706673582212209785d69c5a2fda827274ea1b692437fdcc8be0601be2489e72c360f67b317fdb64736f6c634300080a0033",
  "linkReferences": {},
  "deployedLinkReferences": {}
}