{
  "_format": "hh-sol-artifact-1",
  "contractName": "CoursesManager",
  "sourceName": "contracts/CoursesManager.sol",
  "abi": [
    {
      "inputs": [
        {
          "internalType": "address",
          "name": "_secrAddr",
          "type": "address"
        }
      ],
      "stateMutability": "nonpayable",
      "type": "constructor"
    },
    {
      "anonymous": false,
      "inputs": [
        {
          "indexed": true,
          "internalType": "address",
          "name": "previousOwner",
          "type": "address"
        },
        {
          "indexed": true,
          "internalType": "address",
          "name": "newOwner",
          "type": "address"
        }
      ],
      "name": "OwnershipTransferred",
      "type": "event"
    },
    {
      "inputs": [
        {
          "internalType": "uint8",
          "name": "a",
          "type": "uint8"
        },
        {
          "internalType": "uint8",
          "name": "b",
          "type": "uint8"
        }
      ],
      "name": "HardCodeArrayforRequirements",
      "outputs": [
        {
          "internalType": "uint8[]",
          "name": "bbbb",
          "type": "uint8[]"
        }
      ],
      "stateMutability": "pure",
      "type": "function"
    },
    {
      "inputs": [
        {
          "internalType": "uint8",
          "name": "a",
          "type": "uint8"
        },
        {
          "internalType": "uint8",
          "name": "b",
          "type": "uint8"
        },
        {
          "internalType": "uint8",
          "name": "c",
          "type": "uint8"
        }
      ],
      "name": "HardCodeArrayforRequirements",
      "outputs": [
        {
          "internalType": "uint8[]",
          "name": "aaaa",
          "type": "uint8[]"
        }
      ],
      "stateMutability": "pure",
      "type": "function"
    },
    {
      "inputs": [],
      "name": "SecreteryContractAddress_T",
      "outputs": [
        {
          "internalType": "address",
          "name": "",
          "type": "address"
        }
      ],
      "stateMutability": "view",
      "type": "function"
    },
    {
      "inputs": [
        {
          "internalType": "uint64",
          "name": "_PS",
          "type": "uint64"
        },
        {
          "internalType": "uint8",
          "name": "_semester",
          "type": "uint8"
        },
        {
          "internalType": "uint32",
          "name": "_courseID",
          "type": "uint32"
        },
        {
          "internalType": "int8",
          "name": "_type_",
          "type": "int8"
        },
        {
          "internalType": "string",
          "name": "_title",
          "type": "string"
        }
      ],
      "name": "createCourse",
      "outputs": [],
      "stateMutability": "nonpayable",
      "type": "function"
    },
    {
      "inputs": [
        {
          "internalType": "uint64",
          "name": "_PS",
          "type": "uint64"
        },
        {
          "internalType": "uint8",
          "name": "_maxSemesters",
          "type": "uint8"
        },
        {
          "internalType": "uint8",
          "name": "_maxCoursesNum",
          "type": "uint8"
        },
        {
          "internalType": "uint8",
          "name": "_maxCourseTypes",
          "type": "uint8"
        }
      ],
      "name": "createPS",
      "outputs": [],
      "stateMutability": "nonpayable",
      "type": "function"
    },
    {
      "inputs": [
        {
          "internalType": "uint64",
          "name": "_PS",
          "type": "uint64"
        },
        {
          "internalType": "uint8",
          "name": "_semID",
          "type": "uint8"
        },
        {
          "internalType": "uint8",
          "name": "_CoursesPerSem",
          "type": "uint8"
        }
      ],
      "name": "createSem",
      "outputs": [],
      "stateMutability": "nonpayable",
      "type": "function"
    },
    {
      "inputs": [],
      "name": "currentNumOfCourses",
      "outputs": [
        {
          "internalType": "uint8",
          "name": "",
          "type": "uint8"
        }
      ],
      "stateMutability": "view",
      "type": "function"
    },
    {
      "inputs": [
        {
          "internalType": "uint64",
          "name": "_PS",
          "type": "uint64"
        },
        {
          "internalType": "uint8",
          "name": "_semID",
          "type": "uint8"
        },
        {
          "internalType": "uint8",
          "name": "_semMappingCourseID",
          "type": "uint8"
        }
      ],
      "name": "delteCourse",
      "outputs": [],
      "stateMutability": "nonpayable",
      "type": "function"
    },
    {
      "inputs": [
        {
          "internalType": "uint64",
          "name": "_PS",
          "type": "uint64"
        }
      ],
      "name": "deltePS",
      "outputs": [],
      "stateMutability": "nonpayable",
      "type": "function"
    },
    {
      "inputs": [
        {
          "internalType": "uint64",
          "name": "_PS",
          "type": "uint64"
        },
        {
          "internalType": "uint8",
          "name": "_semID",
          "type": "uint8"
        }
      ],
      "name": "delteSem",
      "outputs": [],
      "stateMutability": "nonpayable",
      "type": "function"
    },
    {
      "inputs": [
        {
          "internalType": "uint64",
          "name": "_PS",
          "type": "uint64"
        },
        {
          "internalType": "string",
          "name": "_courseTitle",
          "type": "string"
        }
      ],
      "name": "getCourseInfoFromTitle",
      "outputs": [
        {
          "internalType": "uint32",
          "name": "courseID",
          "type": "uint32"
        },
        {
          "internalType": "uint8",
          "name": "semMappingCourseID",
          "type": "uint8"
        }
      ],
      "stateMutability": "view",
      "type": "function"
    },
    {
      "inputs": [
        {
          "internalType": "uint64",
          "name": "_PS",
          "type": "uint64"
        },
        {
          "internalType": "uint8",
          "name": "_semID",
          "type": "uint8"
        }
      ],
      "name": "getCourses",
      "outputs": [
        {
          "internalType": "uint8",
          "name": "",
          "type": "uint8"
        }
      ],
      "stateMutability": "view",
      "type": "function"
    },
    {
      "inputs": [
        {
          "internalType": "uint64",
          "name": "_PS",
          "type": "uint64"
        }
      ],
      "name": "getMaxCourseTypes",
      "outputs": [
        {
          "internalType": "uint8",
          "name": "result",
          "type": "uint8"
        }
      ],
      "stateMutability": "view",
      "type": "function"
    },
    {
      "inputs": [
        {
          "internalType": "uint64",
          "name": "_PS",
          "type": "uint64"
        },
        {
          "internalType": "uint8",
          "name": "_semID",
          "type": "uint8"
        }
      ],
      "name": "getRequirementsFormSem",
      "outputs": [
        {
          "internalType": "uint8[]",
          "name": "",
          "type": "uint8[]"
        }
      ],
      "stateMutability": "view",
      "type": "function"
    },
    {
      "inputs": [
        {
          "internalType": "uint64",
          "name": "_PS",
          "type": "uint64"
        }
      ],
      "name": "getSems",
      "outputs": [
        {
          "internalType": "uint8",
          "name": "a",
          "type": "uint8"
        }
      ],
      "stateMutability": "view",
      "type": "function"
    },
    {
      "inputs": [
        {
          "internalType": "bool",
          "name": "_password",
          "type": "bool"
        }
      ],
      "name": "hardCodeForTesting",
      "outputs": [],
      "stateMutability": "nonpayable",
      "type": "function"
    },
    {
      "inputs": [
        {
          "internalType": "uint64",
          "name": "_PS",
          "type": "uint64"
        },
        {
          "internalType": "uint8",
          "name": "_oldSemID",
          "type": "uint8"
        },
        {
          "internalType": "uint8",
          "name": "_semMappingCourseID",
          "type": "uint8"
        },
        {
          "internalType": "uint32",
          "name": "_newCourseID",
          "type": "uint32"
        },
        {
          "internalType": "uint8",
          "name": "_newSemID",
          "type": "uint8"
        },
        {
          "internalType": "int8",
          "name": "_type_",
          "type": "int8"
        },
        {
          "internalType": "string",
          "name": "_title",
          "type": "string"
        }
      ],
      "name": "modifyCourse",
      "outputs": [],
      "stateMutability": "nonpayable",
      "type": "function"
    },
    {
      "inputs": [
        {
          "internalType": "uint64",
          "name": "old_PS",
          "type": "uint64"
        },
        {
          "internalType": "uint64",
          "name": "new_PS",
          "type": "uint64"
        },
        {
          "internalType": "uint8",
          "name": "_maxSemesters",
          "type": "uint8"
        },
        {
          "internalType": "uint8",
          "name": "_maxCoursesNum",
          "type": "uint8"
        },
        {
          "internalType": "uint8",
          "name": "_maxCourseTypes",
          "type": "uint8"
        }
      ],
      "name": "modifyPS",
      "outputs": [],
      "stateMutability": "nonpayable",
      "type": "function"
    },
    {
      "inputs": [
        {
          "internalType": "uint64",
          "name": "_PS",
          "type": "uint64"
        },
        {
          "internalType": "uint8",
          "name": "_oldSemID",
          "type": "uint8"
        },
        {
          "internalType": "uint8",
          "name": "_newSemID",
          "type": "uint8"
        },
        {
          "internalType": "uint8",
          "name": "_CoursesPerSem",
          "type": "uint8"
        }
      ],
      "name": "modifySem",
      "outputs": [],
      "stateMutability": "nonpayable",
      "type": "function"
    },
    {
      "inputs": [],
      "name": "owner",
      "outputs": [
        {
          "internalType": "address",
          "name": "",
          "type": "address"
        }
      ],
      "stateMutability": "view",
      "type": "function"
    },
    {
      "inputs": [
        {
          "internalType": "uint64",
          "name": "",
          "type": "uint64"
        }
      ],
      "name": "programmataSpoudwn",
      "outputs": [
        {
          "internalType": "uint64",
          "name": "id",
          "type": "uint64"
        },
        {
          "internalType": "uint8",
          "name": "maxCoursesNum",
          "type": "uint8"
        },
        {
          "internalType": "uint8",
          "name": "maxSemesters",
          "type": "uint8"
        },
        {
          "internalType": "uint8",
          "name": "maxCourseTypes",
          "type": "uint8"
        }
      ],
      "stateMutability": "view",
      "type": "function"
    },
    {
      "inputs": [],
      "name": "renounceOwnership",
      "outputs": [],
      "stateMutability": "nonpayable",
      "type": "function"
    },
    {
      "inputs": [
        {
          "internalType": "address",
          "name": "_address",
          "type": "address"
        }
      ],
      "name": "setSecreteryContractAddress_T",
      "outputs": [],
      "stateMutability": "nonpayable",
      "type": "function"
    },
    {
      "inputs": [
        {
          "internalType": "uint64",
          "name": "_PS",
          "type": "uint64"
        },
        {
          "internalType": "uint8",
          "name": "_semID",
          "type": "uint8"
        },
        {
          "internalType": "uint8[]",
          "name": "_numOfEachCourseType",
          "type": "uint8[]"
        }
      ],
      "name": "setSemRequirements",
      "outputs": [],
      "stateMutability": "nonpayable",
      "type": "function"
    },
    {
      "inputs": [],
      "name": "totalPS",
      "outputs": [
        {
          "internalType": "uint64",
          "name": "",
          "type": "uint64"
        }
      ],
      "stateMutability": "view",
      "type": "function"
    },
    {
      "inputs": [
        {
          "internalType": "address",
          "name": "newOwner",
          "type": "address"
        }
      ],
      "name": "transferOwnership",
      "outputs": [],
      "stateMutability": "nonpayable",
      "type": "function"
    }
  ],
  "bytecode": "0x60806040523480156200001157600080fd5b5060405162005079380380620050798339818101604052810190620000379190620011c4565b620000576200004b620000b160201b60201c565b620000b960201b60201c565b80600160006101000a81548173ffffffffffffffffffffffffffffffffffffffff021916908373ffffffffffffffffffffffffffffffffffffffff160217905550620000aa60016200017d60201b60201c565b506200171d565b600033905090565b60008060009054906101000a900473ffffffffffffffffffffffffffffffffffffffff169050816000806101000a81548173ffffffffffffffffffffffffffffffffffffffff021916908373ffffffffffffffffffffffffffffffffffffffff1602179055508173ffffffffffffffffffffffffffffffffffffffff168173ffffffffffffffffffffffffffffffffffffffff167f8be0079c531659141344cd1fd0a4f28419497f9722a3daafe3b4186f6b6457e060405160405180910390a35050565b6200018d620000b160201b60201c565b73ffffffffffffffffffffffffffffffffffffffff16620001b36200054760201b60201c565b73ffffffffffffffffffffffffffffffffffffffff16146200020c576040517f08c379a0000000000000000000000000000000000000000000000000000000008152600401620002039062001257565b60405180910390fd5b806200024f576040517f08c379a00000000000000000000000000000000000000000000000000000000081526004016200024690620012ef565b60405180910390fd5b6200026760016004600860026200057060201b60201c565b6200027d600160006001620007b060201b60201c565b620002926001806001620007b060201b60201c565b620002a76001600280620007b060201b60201c565b620002bd600160036004620007b060201b60201c565b620002cd6200097860201b60201c565b6200031c600160006103e960006040518060400160405280600481526020017f527573740000000000000000000000000000000000000000000000000000000081525062000a4060201b60201c565b6200036a6001806107d160016040518060400160405280600e81526020017f536561206f66205468696576657300000000000000000000000000000000000081525062000a4060201b60201c565b620003b960016002610bb960006040518060400160405280601181526020017f576f726c64204f6620576172637261667400000000000000000000000000000081525062000a4060201b60201c565b6200040860016002610bba60006040518060400160405280600c81526020017f41706578204c6567656e6473000000000000000000000000000000000000000081525062000a4060201b60201c565b6200045760016003610fa160006040518060400160405280601181526020017f4c6561677565204f66204c6567656e647300000000000000000000000000000081525062000a4060201b60201c565b620004a660016003610fa260016040518060400160405280601181526020017f486f72697a6f6e205a65726f204461776e00000000000000000000000000000081525062000a4060201b60201c565b620004f560016003610fa360006040518060400160405280600f81526020017f5265736964656e74204576696c2034000000000000000000000000000000000081525062000a4060201b60201c565b6200054460016003610fa460016040518060400160405280601481526020017f5061632d4d616e204d61737465722d456c69746500000000000000000000000081525062000a4060201b60201c565b50565b60008060009054906101000a900473ffffffffffffffffffffffffffffffffffffffff16905090565b336000600160009054906101000a900473ffffffffffffffffffffffffffffffffffffffff16905060008173ffffffffffffffffffffffffffffffffffffffff1663343ba85d846040518263ffffffff1660e01b8152600401620005d5919062001322565b602060405180830381865afa158015620005f3573d6000803e3d6000fd5b505050506040513d601f19601f820116820180604052508101906200061991906200137c565b9050806200065e576040517f08c379a0000000000000000000000000000000000000000000000000000000008152600401620006559062001424565b60405180910390fd5b620006aa6040518060400160405280601a81526020017f5b434d5d204465706c6f796572202d204d73672e53656e6465720000000000008152503362000cb460201b620025e21760201c565b6000600260008967ffffffffffffffff1667ffffffffffffffff1681526020019081526020016000209050878160000160006101000a81548167ffffffffffffffff021916908367ffffffffffffffff160217905550868160000160096101000a81548160ff021916908360ff160217905550858160000160086101000a81548160ff021916908360ff1602179055508481600001600a6101000a81548160ff021916908360ff1602179055506001601581819054906101000a900467ffffffffffffffff16809291906200077f9062001489565b91906101000a81548167ffffffffffffffff021916908367ffffffffffffffff160217905550505050505050505050565b336000600160009054906101000a900473ffffffffffffffffffffffffffffffffffffffff16905060008173ffffffffffffffffffffffffffffffffffffffff1663343ba85d846040518263ffffffff1660e01b815260040162000815919062001322565b602060405180830381865afa15801562000833573d6000803e3d6000fd5b505050506040513d601f19601f820116820180604052508101906200085991906200137c565b9050806200089e576040517f08c379a0000000000000000000000000000000000000000000000000000000008152600401620008959062001424565b60405180910390fd5b620008ea6040518060400160405280601a81526020017f5b434d5d204465706c6f796572202d204d73672e53656e6465720000000000008152503362000cb460201b620025e21760201c565b6000600260008867ffffffffffffffff1667ffffffffffffffff168152602001908152602001600020905060008160010160008860ff1660ff1681526020019081526020016000209050868160000160006101000a81548160ff021916908360ff160217905550858160000160016101000a81548160ff021916908360ff1602179055505050505050505050565b60006200098e6001600062000d5a60201b60201c565b9050620009a5600160008362000e0a60201b60201c565b606090506000620009bf6000600162000d5a60201b60201c565b9050620009d56001808362000e0a60201b60201c565b606090506000620009ef6002600062000d5a60201b60201c565b905062000a06600160028362000e0a60201b60201c565b60609050600062000a1f60028062000d5a60201b60201c565b905062000a36600160038362000e0a60201b60201c565b6060905050505050565b336000600160009054906101000a900473ffffffffffffffffffffffffffffffffffffffff16905060008173ffffffffffffffffffffffffffffffffffffffff1663343ba85d846040518263ffffffff1660e01b815260040162000aa5919062001322565b602060405180830381865afa15801562000ac3573d6000803e3d6000fd5b505050506040513d601f19601f8201168201806040525081019062000ae991906200137c565b90508062000b2e576040517f08c379a000000000000000000000000000000000000000000000000000000000815260040162000b259062001424565b60405180910390fd5b62000b7a6040518060400160405280601a81526020017f5b434d5d204465706c6f796572202d204d73672e53656e6465720000000000008152503362000cb460201b620025e21760201c565b6000600260008a67ffffffffffffffff1667ffffffffffffffff168152602001908152602001600020905060008160010160008a60ff1660ff16815260200190815260200160002090506000816001016000600160149054906101000a900460ff1660ff1660ff1681526020019081526020016000209050888160000160006101000a81548163ffffffff021916908363ffffffff160217905550898160000160046101000a81548160ff021916908360ff160217905550878160000160056101000a81548160ff021916908360000b60ff1602179055508681600101908051906020019062000c6c929190620010aa565b506001601481819054906101000a900460ff168092919062000c8e90620014cc565b91906101000a81548160ff021916908360ff160217905550505050505050505050505050565b62000d56828260405160240162000ccd9291906200158e565b6040516020818303038152906040527f319af333000000000000000000000000000000000000000000000000000000007bffffffffffffffffffffffffffffffffffffffffffffffffffffffff19166020820180517bffffffffffffffffffffffffffffffffffffffffffffffffffffffff83818316178352505050506200108160201b60201c565b5050565b6060600267ffffffffffffffff81111562000d7a5762000d79620015c2565b5b60405190808252806020026020018201604052801562000da95781602001602082028036833780820191505090505b509050828160008151811062000dc45762000dc3620015f1565b5b602002602001019060ff16908160ff1681525050818160018151811062000df05762000def620015f1565b5b602002602001019060ff16908160ff168152505092915050565b336000600160009054906101000a900473ffffffffffffffffffffffffffffffffffffffff16905060008173ffffffffffffffffffffffffffffffffffffffff1663343ba85d846040518263ffffffff1660e01b815260040162000e6f919062001322565b602060405180830381865afa15801562000e8d573d6000803e3d6000fd5b505050506040513d601f19601f8201168201806040525081019062000eb391906200137c565b90508062000ef8576040517f08c379a000000000000000000000000000000000000000000000000000000000815260040162000eef9062001424565b60405180910390fd5b62000f446040518060400160405280601a81526020017f5b434d5d204465706c6f796572202d204d73672e53656e6465720000000000008152503362000cb460201b620025e21760201c565b6000600260008867ffffffffffffffff1667ffffffffffffffff168152602001908152602001600020905060008160010160008860ff1660ff168152602001908152602001600020905081600001600a9054906101000a900460ff1660ff168651111562000fe9576040517f08c379a000000000000000000000000000000000000000000000000000000000815260040162000fe09062001696565b60405180910390fd5b60005b82600001600a9054906101000a900460ff1660ff168160ff1610156200107657868160ff1681518110620010255762001024620015f1565b5b60200260200101518260020160008360ff1660ff16815260200190815260200160002060006101000a81548160ff021916908360ff16021790555080806200106d90620014cc565b91505062000fec565b505050505050505050565b60008151905060006a636f6e736f6c652e6c6f679050602083016000808483855afa5050505050565b828054620010b890620016e7565b90600052602060002090601f016020900481019282620010dc576000855562001128565b82601f10620010f757805160ff191683800117855562001128565b8280016001018555821562001128579182015b82811115620011275782518255916020019190600101906200110a565b5b5090506200113791906200113b565b5090565b5b80821115620011565760008160009055506001016200113c565b5090565b600080fd5b600073ffffffffffffffffffffffffffffffffffffffff82169050919050565b60006200118c826200115f565b9050919050565b6200119e816200117f565b8114620011aa57600080fd5b50565b600081519050620011be8162001193565b92915050565b600060208284031215620011dd57620011dc6200115a565b5b6000620011ed84828501620011ad565b91505092915050565b600082825260208201905092915050565b7f4f776e61626c653a2063616c6c6572206973206e6f7420746865206f776e6572600082015250565b60006200123f602083620011f6565b91506200124c8262001207565b602082019050919050565b60006020820190508181036000830152620012728162001230565b9050919050565b7f436f75727365734d616e6765722e736f6c203a2057726f6e672050617373776f60008201527f7264210000000000000000000000000000000000000000000000000000000000602082015250565b6000620012d7602383620011f6565b9150620012e48262001279565b604082019050919050565b600060208201905081810360008301526200130a81620012c8565b9050919050565b6200131c816200117f565b82525050565b600060208201905062001339600083018462001311565b92915050565b60008115159050919050565b62001356816200133f565b81146200136257600080fd5b50565b60008151905062001376816200134b565b92915050565b6000602082840312156200139557620013946200115a565b5b6000620013a58482850162001365565b91505092915050565b7f6d6f645f6f6e6c7950726f663a2043616c6c6572206973206e6f74206120707260008201527f6f666573736f7221000000000000000000000000000000000000000000000000602082015250565b60006200140c602883620011f6565b91506200141982620013ae565b604082019050919050565b600060208201905081810360008301526200143f81620013fd565b9050919050565b7f4e487b7100000000000000000000000000000000000000000000000000000000600052601160045260246000fd5b600067ffffffffffffffff82169050919050565b6000620014968262001475565b915067ffffffffffffffff821415620014b457620014b362001446565b5b600182019050919050565b600060ff82169050919050565b6000620014d982620014bf565b915060ff821415620014f057620014ef62001446565b5b600182019050919050565b600081519050919050565b60005b838110156200152657808201518184015260208101905062001509565b8381111562001536576000848401525b50505050565b6000601f19601f8301169050919050565b60006200155a82620014fb565b620015668185620011f6565b93506200157881856020860162001506565b62001583816200153c565b840191505092915050565b60006040820190508181036000830152620015aa81856200154d565b9050620015bb602083018462001311565b9392505050565b7f4e487b7100000000000000000000000000000000000000000000000000000000600052604160045260246000fd5b7f4e487b7100000000000000000000000000000000000000000000000000000000600052603260045260246000fd5b7f436f757273654d616e616765722e736f6c3a20596f7520736574206d6f72652060008201527f436f75727365205479706573207468617420796f752073686f756c6421000000602082015250565b60006200167e603d83620011f6565b91506200168b8262001620565b604082019050919050565b60006020820190508181036000830152620016b1816200166f565b9050919050565b7f4e487b7100000000000000000000000000000000000000000000000000000000600052602260045260246000fd5b600060028204905060018216806200170057607f821691505b60208210811415620017175762001716620016b8565b5b50919050565b61394c806200172d6000396000f3fe608060405234801561001057600080fd5b506004361061018e5760003560e01c80638da5cb5b116100de578063aa9916e511610097578063daf349a611610071578063daf349a614610495578063eaa77c01146104b1578063f2fde38b146104cd578063ffd99598146104e95761018e565b8063aa9916e514610417578063b5f527cc14610447578063cfdcbf0b146104655761018e565b80638da5cb5b146103565780638feccd6e1461037457806394fa399a14610390578063973f892d146103ac57806399b7a82f146103c8578063a44ac2bd146103e45761018e565b806354e3e3661161014b57806361c6aee61161012557806361c6aee6146102bc578063715018a6146102ec5780637e925ff6146102f657806381676d81146103265761018e565b806354e3e366146102535780635da0418f1461028457806360ca7abd146102a05761018e565b80631e169d9f146101935780633b761483146101b15780634631c95b146101e15780634944250c146101fd578063500cd686146102195780635232ceba14610235575b600080fd5b61019b610505565b6040516101a8919061291f565b60405180910390f35b6101cb60048036038101906101c6919061298e565b61052b565b6040516101d891906129d7565b60405180910390f35b6101fb60048036038101906101f69190612bd9565b610571565b005b6102176004803603810190610212919061298e565b6107cc565b005b610233600480360381019061022e9190612c70565b6109c5565b005b61023d610ba2565b60405161024a9190612cfa565b60405180910390f35b61026d60048036038101906102689190612d15565b610bbc565b60405161027b929190612d80565b60405180910390f35b61029e60048036038101906102999190612da9565b610f2f565b005b6102ba60048036038101906102b59190612e48565b611158565b005b6102d660048036038101906102d19190612e75565b61149c565b6040516102e39190612f73565b60405180910390f35b6102f46115c3565b005b610310600480360381019061030b9190612f95565b61164b565b60405161031d9190612f73565b60405180910390f35b610340600480360381019061033b9190612fd5565b6116f1565b60405161034d9190612f73565b60405180910390f35b61035e6117c1565b60405161036b919061291f565b60405180910390f35b61038e60048036038101906103899190613028565b6117ea565b005b6103aa60048036038101906103a5919061307b565b611a08565b005b6103c660048036038101906103c19190612da9565b611c1e565b005b6103e260048036038101906103dd9190613201565b611dd2565b005b6103fe60048036038101906103f9919061298e565b61202a565b60405161040e9493929190613270565b60405180910390f35b610431600480360381019061042c9190612e75565b612095565b60405161043e91906129d7565b60405180910390f35b61044f6120fc565b60405161045c91906129d7565b60405180910390f35b61047f600480360381019061047a919061298e565b61210f565b60405161048c91906129d7565b60405180910390f35b6104af60048036038101906104aa91906132e1565b612155565b005b6104cb60048036038101906104c69190612e75565b612199565b005b6104e760048036038101906104e291906132e1565b612337565b005b61050360048036038101906104fe9190613028565b61242f565b005b600160009054906101000a900473ffffffffffffffffffffffffffffffffffffffff1681565b600080600260008467ffffffffffffffff1667ffffffffffffffff168152602001908152602001600020905080600001600a9054906101000a900460ff16915050919050565b336000600160009054906101000a900473ffffffffffffffffffffffffffffffffffffffff16905060008173ffffffffffffffffffffffffffffffffffffffff1663343ba85d846040518263ffffffff1660e01b81526004016105d4919061291f565b602060405180830381865afa1580156105f1573d6000803e3d6000fd5b505050506040513d601f19601f820116820180604052508101906106159190613323565b905080610657576040517f08c379a000000000000000000000000000000000000000000000000000000000815260040161064e906133d3565b60405180910390fd5b6106966040518060400160405280601a81526020017f5b434d5d204465706c6f796572202d204d73672e53656e646572000000000000815250336125e2565b6000600260008a67ffffffffffffffff1667ffffffffffffffff168152602001908152602001600020905060008160010160008a60ff1660ff16815260200190815260200160002090506000816001016000600160149054906101000a900460ff1660ff1660ff1681526020019081526020016000209050888160000160006101000a81548163ffffffff021916908363ffffffff160217905550898160000160046101000a81548160ff021916908360ff160217905550878160000160056101000a81548160ff021916908360000b60ff160217905550868160010190805190602001906107869291906127fb565b506001601481819054906101000a900460ff16809291906107a690613422565b91906101000a81548160ff021916908360ff160217905550505050505050505050505050565b336000600160009054906101000a900473ffffffffffffffffffffffffffffffffffffffff16905060008173ffffffffffffffffffffffffffffffffffffffff1663343ba85d846040518263ffffffff1660e01b815260040161082f919061291f565b602060405180830381865afa15801561084c573d6000803e3d6000fd5b505050506040513d601f19601f820116820180604052508101906108709190613323565b9050806108b2576040517f08c379a00000000000000000000000000000000000000000000000000000000081526004016108a9906133d3565b60405180910390fd5b6108f16040518060400160405280601a81526020017f5b434d5d204465706c6f796572202d204d73672e53656e646572000000000000815250336125e2565b600260008567ffffffffffffffff1667ffffffffffffffff168152602001908152602001600020600080820160006101000a81549067ffffffffffffffff02191690556000820160086101000a81549060ff02191690556000820160096101000a81549060ff021916905560008201600a6101000a81549060ff021916905550506001601581819054906101000a900467ffffffffffffffff16809291906109989061344c565b91906101000a81548167ffffffffffffffff021916908367ffffffffffffffff1602179055505050505050565b336000600160009054906101000a900473ffffffffffffffffffffffffffffffffffffffff16905060008173ffffffffffffffffffffffffffffffffffffffff1663343ba85d846040518263ffffffff1660e01b8152600401610a28919061291f565b602060405180830381865afa158015610a45573d6000803e3d6000fd5b505050506040513d601f19601f82011682018060405250810190610a699190613323565b905080610aab576040517f08c379a0000000000000000000000000000000000000000000000000000000008152600401610aa2906133d3565b60405180910390fd5b610aea6040518060400160405280601a81526020017f5b434d5d204465706c6f796572202d204d73672e53656e646572000000000000815250336125e2565b6000600260008a67ffffffffffffffff1667ffffffffffffffff1681526020019081526020016000209050878160000160006101000a81548167ffffffffffffffff021916908367ffffffffffffffff160217905550868160000160096101000a81548160ff021916908360ff160217905550858160000160086101000a81548160ff021916908360ff1602179055508481600001600a6101000a81548160ff021916908360ff160217905550505050505050505050565b600160159054906101000a900467ffffffffffffffff1681565b600080336000600160009054906101000a900473ffffffffffffffffffffffffffffffffffffffff16905060008173ffffffffffffffffffffffffffffffffffffffff1663343ba85d846040518263ffffffff1660e01b8152600401610c22919061291f565b602060405180830381865afa158015610c3f573d6000803e3d6000fd5b505050506040513d601f19601f82011682018060405250810190610c639190613323565b905080610ca5576040517f08c379a0000000000000000000000000000000000000000000000000000000008152600401610c9c906133d3565b60405180910390fd5b610ce46040518060400160405280601a81526020017f5b434d5d204465706c6f796572202d204d73672e53656e646572000000000000815250336125e2565b6000600260008967ffffffffffffffff1667ffffffffffffffff1681526020019081526020016000209050600060018260000160099054906101000a900460ff16610d2f9190613476565b905060005b8160ff168160ff161015610f215760008360010160008360ff1660ff1681526020019081526020016000209050600060018060149054906101000a900460ff16610d7e9190613476565b905060005b8160ff168160ff1611610f0b5760008360010160008360ff1660ff16815260200190815260200160002090506000816001018054610dc0906134d9565b80601f0160208091040260200160405190810160405280929190818152602001828054610dec906134d9565b8015610e395780601f10610e0e57610100808354040283529160200191610e39565b820191906000526020600020905b815481529060010190602001808311610e1c57829003601f168201915b505050505090508d8051906020012081805190602001201415610e97578460010160008460ff1660ff16815260200190815260200160002060000160009054906101000a900463ffffffff16839c509c505050505050505050610f25565b600160149054906101000a900460ff1660ff168360ff161415610ef6576000610ef5576040517f08c379a0000000000000000000000000000000000000000000000000000000008152600401610eec906135a3565b60405180910390fd5b5b50508080610f0390613422565b915050610d83565b5050508080610f1990613422565b915050610d34565b5050505b5050509250929050565b336000600160009054906101000a900473ffffffffffffffffffffffffffffffffffffffff16905060008173ffffffffffffffffffffffffffffffffffffffff1663343ba85d846040518263ffffffff1660e01b8152600401610f92919061291f565b602060405180830381865afa158015610faf573d6000803e3d6000fd5b505050506040513d601f19601f82011682018060405250810190610fd39190613323565b905080611015576040517f08c379a000000000000000000000000000000000000000000000000000000000815260040161100c906133d3565b60405180910390fd5b6110546040518060400160405280601a81526020017f5b434d5d204465706c6f796572202d204d73672e53656e646572000000000000815250336125e2565b6000600260008967ffffffffffffffff1667ffffffffffffffff1681526020019081526020016000209050878160000160006101000a81548167ffffffffffffffff021916908367ffffffffffffffff160217905550868160000160096101000a81548160ff021916908360ff160217905550858160000160086101000a81548160ff021916908360ff1602179055508481600001600a6101000a81548160ff021916908360ff1602179055506001601581819054906101000a900467ffffffffffffffff1680929190611127906135c3565b91906101000a81548167ffffffffffffffff021916908367ffffffffffffffff160217905550505050505050505050565b61116061267e565b73ffffffffffffffffffffffffffffffffffffffff1661117e6117c1565b73ffffffffffffffffffffffffffffffffffffffff16146111d4576040517f08c379a00000000000000000000000000000000000000000000000000000000081526004016111cb90613640565b60405180910390fd5b80611214576040517f08c379a000000000000000000000000000000000000000000000000000000000815260040161120b906136d2565b60405180910390fd5b6112246001600460086002610f2f565b61123260016000600161242f565b61123f600180600161242f565b61124c600160028061242f565b61125a60016003600461242f565b611262612686565b6112a9600160006103e960006040518060400160405280600481526020017f5275737400000000000000000000000000000000000000000000000000000000815250610571565b6112ef6001806107d160016040518060400160405280600e81526020017f536561206f662054686965766573000000000000000000000000000000000000815250610571565b61133660016002610bb960006040518060400160405280601181526020017f576f726c64204f66205761726372616674000000000000000000000000000000815250610571565b61137d60016002610bba60006040518060400160405280600c81526020017f41706578204c6567656e64730000000000000000000000000000000000000000815250610571565b6113c460016003610fa160006040518060400160405280601181526020017f4c6561677565204f66204c6567656e6473000000000000000000000000000000815250610571565b61140b60016003610fa260016040518060400160405280601181526020017f486f72697a6f6e205a65726f204461776e000000000000000000000000000000815250610571565b61145260016003610fa360006040518060400160405280600f81526020017f5265736964656e74204576696c20340000000000000000000000000000000000815250610571565b61149960016003610fa460016040518060400160405280601481526020017f5061632d4d616e204d61737465722d456c697465000000000000000000000000815250610571565b50565b60606000600260008567ffffffffffffffff1667ffffffffffffffff168152602001908152602001600020905060008160010160008560ff1660ff168152602001908152602001600020905060006002905060008160ff1667ffffffffffffffff81111561150d5761150c612aae565b5b60405190808252806020026020018201604052801561153b5781602001602082028036833780820191505090505b50905060005b8260ff168160ff1610156115b5578360020160008260ff1660ff16815260200190815260200160002060009054906101000a900460ff16828260ff168151811061158e5761158d6136f2565b5b602002602001019060ff16908160ff168152505080806115ad90613422565b915050611541565b508094505050505092915050565b6115cb61267e565b73ffffffffffffffffffffffffffffffffffffffff166115e96117c1565b73ffffffffffffffffffffffffffffffffffffffff161461163f576040517f08c379a000000000000000000000000000000000000000000000000000000000815260040161163690613640565b60405180910390fd5b611649600061270e565b565b6060600267ffffffffffffffff81111561166857611667612aae565b5b6040519080825280602002602001820160405280156116965781602001602082028036833780820191505090505b50905082816000815181106116ae576116ad6136f2565b5b602002602001019060ff16908160ff168152505081816001815181106116d7576116d66136f2565b5b602002602001019060ff16908160ff168152505092915050565b6060600367ffffffffffffffff81111561170e5761170d612aae565b5b60405190808252806020026020018201604052801561173c5781602001602082028036833780820191505090505b5090508381600081518110611754576117536136f2565b5b602002602001019060ff16908160ff1681525050828160018151811061177d5761177c6136f2565b5b602002602001019060ff16908160ff168152505081816002815181106117a6576117a56136f2565b5b602002602001019060ff16908160ff16815250509392505050565b60008060009054906101000a900473ffffffffffffffffffffffffffffffffffffffff16905090565b336000600160009054906101000a900473ffffffffffffffffffffffffffffffffffffffff16905060008173ffffffffffffffffffffffffffffffffffffffff1663343ba85d846040518263ffffffff1660e01b815260040161184d919061291f565b602060405180830381865afa15801561186a573d6000803e3d6000fd5b505050506040513d601f19601f8201168201806040525081019061188e9190613323565b9050806118d0576040517f08c379a00000000000000000000000000000000000000000000000000000000081526004016118c7906133d3565b60405180910390fd5b61190f6040518060400160405280601a81526020017f5b434d5d204465706c6f796572202d204d73672e53656e646572000000000000815250336125e2565b6000600260008867ffffffffffffffff1667ffffffffffffffff168152602001908152602001600020905060008160010160008860ff1660ff16815260200190815260200160002090508060010160008760ff1660ff168152602001908152602001600020600080820160006101000a81549063ffffffff02191690556000820160046101000a81549060ff02191690556000820160056101000a81549060ff02191690556001820160006119c49190612881565b50506001601481819054906101000a900460ff16809291906119e590613721565b91906101000a81548160ff021916908360ff160217905550505050505050505050565b336000600160009054906101000a900473ffffffffffffffffffffffffffffffffffffffff16905060008173ffffffffffffffffffffffffffffffffffffffff1663343ba85d846040518263ffffffff1660e01b8152600401611a6b919061291f565b602060405180830381865afa158015611a88573d6000803e3d6000fd5b505050506040513d601f19601f82011682018060405250810190611aac9190613323565b905080611aee576040517f08c379a0000000000000000000000000000000000000000000000000000000008152600401611ae5906133d3565b60405180910390fd5b611b2d6040518060400160405280601a81526020017f5b434d5d204465706c6f796572202d204d73672e53656e646572000000000000815250336125e2565b6000600260008c67ffffffffffffffff1667ffffffffffffffff168152602001908152602001600020905060008160010160008c60ff1660ff168152602001908152602001600020905060008160010160008c60ff1660ff1681526020019081526020016000209050898160000160006101000a81548163ffffffff021916908363ffffffff160217905550888160000160046101000a81548160ff021916908360ff160217905550878160000160056101000a81548160ff021916908360000b60ff16021790555086816001019080519060200190611c0e9291906127fb565b5050505050505050505050505050565b336000600160009054906101000a900473ffffffffffffffffffffffffffffffffffffffff16905060008173ffffffffffffffffffffffffffffffffffffffff1663343ba85d846040518263ffffffff1660e01b8152600401611c81919061291f565b602060405180830381865afa158015611c9e573d6000803e3d6000fd5b505050506040513d601f19601f82011682018060405250810190611cc29190613323565b905080611d04576040517f08c379a0000000000000000000000000000000000000000000000000000000008152600401611cfb906133d3565b60405180910390fd5b611d436040518060400160405280601a81526020017f5b434d5d204465706c6f796572202d204d73672e53656e646572000000000000815250336125e2565b6000600260008967ffffffffffffffff1667ffffffffffffffff168152602001908152602001600020905060008160010160008960ff1660ff1681526020019081526020016000209050868160000160006101000a81548160ff021916908360ff160217905550858160000160016101000a81548160ff021916908360ff160217905550505050505050505050565b336000600160009054906101000a900473ffffffffffffffffffffffffffffffffffffffff16905060008173ffffffffffffffffffffffffffffffffffffffff1663343ba85d846040518263ffffffff1660e01b8152600401611e35919061291f565b602060405180830381865afa158015611e52573d6000803e3d6000fd5b505050506040513d601f19601f82011682018060405250810190611e769190613323565b905080611eb8576040517f08c379a0000000000000000000000000000000000000000000000000000000008152600401611eaf906133d3565b60405180910390fd5b611ef76040518060400160405280601a81526020017f5b434d5d204465706c6f796572202d204d73672e53656e646572000000000000815250336125e2565b6000600260008867ffffffffffffffff1667ffffffffffffffff168152602001908152602001600020905060008160010160008860ff1660ff168152602001908152602001600020905081600001600a9054906101000a900460ff1660ff1686511115611f99576040517f08c379a0000000000000000000000000000000000000000000000000000000008152600401611f90906137bd565b60405180910390fd5b60005b82600001600a9054906101000a900460ff1660ff168160ff16101561201f57868160ff1681518110611fd157611fd06136f2565b5b60200260200101518260020160008360ff1660ff16815260200190815260200160002060006101000a81548160ff021916908360ff160217905550808061201790613422565b915050611f9c565b505050505050505050565b60026020528060005260406000206000915090508060000160009054906101000a900467ffffffffffffffff16908060000160089054906101000a900460ff16908060000160099054906101000a900460ff169080600001600a9054906101000a900460ff16905084565b600080600260008567ffffffffffffffff1667ffffffffffffffff168152602001908152602001600020905060008160010160008560ff1660ff16815260200190815260200160002090508060000160019054906101000a900460ff169250505092915050565b600160149054906101000a900460ff1681565b600080600260008467ffffffffffffffff1667ffffffffffffffff16815260200190815260200160002090508060000160099054906101000a900460ff16915050919050565b80600160006101000a81548173ffffffffffffffffffffffffffffffffffffffff021916908373ffffffffffffffffffffffffffffffffffffffff16021790555050565b336000600160009054906101000a900473ffffffffffffffffffffffffffffffffffffffff16905060008173ffffffffffffffffffffffffffffffffffffffff1663343ba85d846040518263ffffffff1660e01b81526004016121fc919061291f565b602060405180830381865afa158015612219573d6000803e3d6000fd5b505050506040513d601f19601f8201168201806040525081019061223d9190613323565b90508061227f576040517f08c379a0000000000000000000000000000000000000000000000000000000008152600401612276906133d3565b60405180910390fd5b6122be6040518060400160405280601a81526020017f5b434d5d204465706c6f796572202d204d73672e53656e646572000000000000815250336125e2565b6000600260008767ffffffffffffffff1667ffffffffffffffff16815260200190815260200160002090508060010160008660ff1660ff168152602001908152602001600020600080820160006101000a81549060ff02191690556000820160016101000a81549060ff02191690555050505050505050565b61233f61267e565b73ffffffffffffffffffffffffffffffffffffffff1661235d6117c1565b73ffffffffffffffffffffffffffffffffffffffff16146123b3576040517f08c379a00000000000000000000000000000000000000000000000000000000081526004016123aa90613640565b60405180910390fd5b600073ffffffffffffffffffffffffffffffffffffffff168173ffffffffffffffffffffffffffffffffffffffff161415612423576040517f08c379a000000000000000000000000000000000000000000000000000000000815260040161241a9061384f565b60405180910390fd5b61242c8161270e565b50565b336000600160009054906101000a900473ffffffffffffffffffffffffffffffffffffffff16905060008173ffffffffffffffffffffffffffffffffffffffff1663343ba85d846040518263ffffffff1660e01b8152600401612492919061291f565b602060405180830381865afa1580156124af573d6000803e3d6000fd5b505050506040513d601f19601f820116820180604052508101906124d39190613323565b905080612515576040517f08c379a000000000000000000000000000000000000000000000000000000000815260040161250c906133d3565b60405180910390fd5b6125546040518060400160405280601a81526020017f5b434d5d204465706c6f796572202d204d73672e53656e646572000000000000815250336125e2565b6000600260008867ffffffffffffffff1667ffffffffffffffff168152602001908152602001600020905060008160010160008860ff1660ff1681526020019081526020016000209050868160000160006101000a81548160ff021916908360ff160217905550858160000160016101000a81548160ff021916908360ff1602179055505050505050505050565b61267a82826040516024016125f89291906138e6565b6040516020818303038152906040527f319af333000000000000000000000000000000000000000000000000000000007bffffffffffffffffffffffffffffffffffffffffffffffffffffffff19166020820180517bffffffffffffffffffffffffffffffffffffffffffffffffffffffff83818316178352505050506127d2565b5050565b600033905090565b60006126946001600061164b565b90506126a36001600083611dd2565b6060905060006126b56000600161164b565b90506126c360018083611dd2565b6060905060006126d56002600061164b565b90506126e46001600283611dd2565b6060905060006126f560028061164b565b90506127046001600383611dd2565b6060905050505050565b60008060009054906101000a900473ffffffffffffffffffffffffffffffffffffffff169050816000806101000a81548173ffffffffffffffffffffffffffffffffffffffff021916908373ffffffffffffffffffffffffffffffffffffffff1602179055508173ffffffffffffffffffffffffffffffffffffffff168173ffffffffffffffffffffffffffffffffffffffff167f8be0079c531659141344cd1fd0a4f28419497f9722a3daafe3b4186f6b6457e060405160405180910390a35050565b60008151905060006a636f6e736f6c652e6c6f679050602083016000808483855afa5050505050565b828054612807906134d9565b90600052602060002090601f0160209004810192826128295760008555612870565b82601f1061284257805160ff1916838001178555612870565b82800160010185558215612870579182015b8281111561286f578251825591602001919060010190612854565b5b50905061287d91906128c1565b5090565b50805461288d906134d9565b6000825580601f1061289f57506128be565b601f0160209004906000526020600020908101906128bd91906128c1565b5b50565b5b808211156128da5760008160009055506001016128c2565b5090565b600073ffffffffffffffffffffffffffffffffffffffff82169050919050565b6000612909826128de565b9050919050565b612919816128fe565b82525050565b60006020820190506129346000830184612910565b92915050565b6000604051905090565b600080fd5b600080fd5b600067ffffffffffffffff82169050919050565b61296b8161294e565b811461297657600080fd5b50565b60008135905061298881612962565b92915050565b6000602082840312156129a4576129a3612944565b5b60006129b284828501612979565b91505092915050565b600060ff82169050919050565b6129d1816129bb565b82525050565b60006020820190506129ec60008301846129c8565b92915050565b6129fb816129bb565b8114612a0657600080fd5b50565b600081359050612a18816129f2565b92915050565b600063ffffffff82169050919050565b612a3781612a1e565b8114612a4257600080fd5b50565b600081359050612a5481612a2e565b92915050565b60008160000b9050919050565b612a7081612a5a565b8114612a7b57600080fd5b50565b600081359050612a8d81612a67565b92915050565b600080fd5b600080fd5b6000601f19601f8301169050919050565b7f4e487b7100000000000000000000000000000000000000000000000000000000600052604160045260246000fd5b612ae682612a9d565b810181811067ffffffffffffffff82111715612b0557612b04612aae565b5b80604052505050565b6000612b1861293a565b9050612b248282612add565b919050565b600067ffffffffffffffff821115612b4457612b43612aae565b5b612b4d82612a9d565b9050602081019050919050565b82818337600083830152505050565b6000612b7c612b7784612b29565b612b0e565b905082815260208101848484011115612b9857612b97612a98565b5b612ba3848285612b5a565b509392505050565b600082601f830112612bc057612bbf612a93565b5b8135612bd0848260208601612b69565b91505092915050565b600080600080600060a08688031215612bf557612bf4612944565b5b6000612c0388828901612979565b9550506020612c1488828901612a09565b9450506040612c2588828901612a45565b9350506060612c3688828901612a7e565b925050608086013567ffffffffffffffff811115612c5757612c56612949565b5b612c6388828901612bab565b9150509295509295909350565b600080600080600060a08688031215612c8c57612c8b612944565b5b6000612c9a88828901612979565b9550506020612cab88828901612979565b9450506040612cbc88828901612a09565b9350506060612ccd88828901612a09565b9250506080612cde88828901612a09565b9150509295509295909350565b612cf48161294e565b82525050565b6000602082019050612d0f6000830184612ceb565b92915050565b60008060408385031215612d2c57612d2b612944565b5b6000612d3a85828601612979565b925050602083013567ffffffffffffffff811115612d5b57612d5a612949565b5b612d6785828601612bab565b9150509250929050565b612d7a81612a1e565b82525050565b6000604082019050612d956000830185612d71565b612da260208301846129c8565b9392505050565b60008060008060808587031215612dc357612dc2612944565b5b6000612dd187828801612979565b9450506020612de287828801612a09565b9350506040612df387828801612a09565b9250506060612e0487828801612a09565b91505092959194509250565b60008115159050919050565b612e2581612e10565b8114612e3057600080fd5b50565b600081359050612e4281612e1c565b92915050565b600060208284031215612e5e57612e5d612944565b5b6000612e6c84828501612e33565b91505092915050565b60008060408385031215612e8c57612e8b612944565b5b6000612e9a85828601612979565b9250506020612eab85828601612a09565b9150509250929050565b600081519050919050565b600082825260208201905092915050565b6000819050602082019050919050565b612eea816129bb565b82525050565b6000612efc8383612ee1565b60208301905092915050565b6000602082019050919050565b6000612f2082612eb5565b612f2a8185612ec0565b9350612f3583612ed1565b8060005b83811015612f66578151612f4d8882612ef0565b9750612f5883612f08565b925050600181019050612f39565b5085935050505092915050565b60006020820190508181036000830152612f8d8184612f15565b905092915050565b60008060408385031215612fac57612fab612944565b5b6000612fba85828601612a09565b9250506020612fcb85828601612a09565b9150509250929050565b600080600060608486031215612fee57612fed612944565b5b6000612ffc86828701612a09565b935050602061300d86828701612a09565b925050604061301e86828701612a09565b9150509250925092565b60008060006060848603121561304157613040612944565b5b600061304f86828701612979565b935050602061306086828701612a09565b925050604061307186828701612a09565b9150509250925092565b600080600080600080600060e0888a03121561309a57613099612944565b5b60006130a88a828b01612979565b97505060206130b98a828b01612a09565b96505060406130ca8a828b01612a09565b95505060606130db8a828b01612a45565b94505060806130ec8a828b01612a09565b93505060a06130fd8a828b01612a7e565b92505060c088013567ffffffffffffffff81111561311e5761311d612949565b5b61312a8a828b01612bab565b91505092959891949750929550565b600067ffffffffffffffff82111561315457613153612aae565b5b602082029050602081019050919050565b600080fd5b600061317d61317884613139565b612b0e565b905080838252602082019050602084028301858111156131a05761319f613165565b5b835b818110156131c957806131b58882612a09565b8452602084019350506020810190506131a2565b5050509392505050565b600082601f8301126131e8576131e7612a93565b5b81356131f884826020860161316a565b91505092915050565b60008060006060848603121561321a57613219612944565b5b600061322886828701612979565b935050602061323986828701612a09565b925050604084013567ffffffffffffffff81111561325a57613259612949565b5b613266868287016131d3565b9150509250925092565b60006080820190506132856000830187612ceb565b61329260208301866129c8565b61329f60408301856129c8565b6132ac60608301846129c8565b95945050505050565b6132be816128fe565b81146132c957600080fd5b50565b6000813590506132db816132b5565b92915050565b6000602082840312156132f7576132f6612944565b5b6000613305848285016132cc565b91505092915050565b60008151905061331d81612e1c565b92915050565b60006020828403121561333957613338612944565b5b60006133478482850161330e565b91505092915050565b600082825260208201905092915050565b7f6d6f645f6f6e6c7950726f663a2043616c6c6572206973206e6f74206120707260008201527f6f666573736f7221000000000000000000000000000000000000000000000000602082015250565b60006133bd602883613350565b91506133c882613361565b604082019050919050565b600060208201905081810360008301526133ec816133b0565b9050919050565b7f4e487b7100000000000000000000000000000000000000000000000000000000600052601160045260246000fd5b600061342d826129bb565b915060ff821415613441576134406133f3565b5b600182019050919050565b60006134578261294e565b9150600082141561346b5761346a6133f3565b5b600182039050919050565b6000613481826129bb565b915061348c836129bb565b92508282101561349f5761349e6133f3565b5b828203905092915050565b7f4e487b7100000000000000000000000000000000000000000000000000000000600052602260045260246000fd5b600060028204905060018216806134f157607f821691505b60208210811415613505576135046134aa565b5b50919050565b7f436f757273654d616e616765722e736f6c3a204e6f20636f75727365206d617460008201527f6368696e672074686520696e7075746564207469746c652077617320666f756e60208201527f6400000000000000000000000000000000000000000000000000000000000000604082015250565b600061358d604183613350565b91506135988261350b565b606082019050919050565b600060208201905081810360008301526135bc81613580565b9050919050565b60006135ce8261294e565b915067ffffffffffffffff8214156135e9576135e86133f3565b5b600182019050919050565b7f4f776e61626c653a2063616c6c6572206973206e6f7420746865206f776e6572600082015250565b600061362a602083613350565b9150613635826135f4565b602082019050919050565b600060208201905081810360008301526136598161361d565b9050919050565b7f436f75727365734d616e6765722e736f6c203a2057726f6e672050617373776f60008201527f7264210000000000000000000000000000000000000000000000000000000000602082015250565b60006136bc602383613350565b91506136c782613660565b604082019050919050565b600060208201905081810360008301526136eb816136af565b9050919050565b7f4e487b7100000000000000000000000000000000000000000000000000000000600052603260045260246000fd5b600061372c826129bb565b915060008214156137405761373f6133f3565b5b600182039050919050565b7f436f757273654d616e616765722e736f6c3a20596f7520736574206d6f72652060008201527f436f75727365205479706573207468617420796f752073686f756c6421000000602082015250565b60006137a7603d83613350565b91506137b28261374b565b604082019050919050565b600060208201905081810360008301526137d68161379a565b9050919050565b7f4f776e61626c653a206e6577206f776e657220697320746865207a65726f206160008201527f6464726573730000000000000000000000000000000000000000000000000000602082015250565b6000613839602683613350565b9150613844826137dd565b604082019050919050565b600060208201905081810360008301526138688161382c565b9050919050565b600081519050919050565b60005b8381101561389857808201518184015260208101905061387d565b838111156138a7576000848401525b50505050565b60006138b88261386f565b6138c28185613350565b93506138d281856020860161387a565b6138db81612a9d565b840191505092915050565b6000604082019050818103600083015261390081856138ad565b905061390f6020830184612910565b939250505056fea2646970667358221220485e1ddd23773af90d81548f4e17839de1e01a04ab97d06ea62ad2f9f371273464736f6c634300080a0033",
  "linkReferences": {},
  "deployedLinkReferences": {}
}